:100000000C94CF010C94F7010C94F7010C947A2610
:100010000C94A4260C94CE260C94F7010C94F701B2
:100020000C94F7010C94F7010C94F7010C94F70170
:100030000C94F7010C94F7010C94F7010C94F70160
:100040000C94F12F0C94F7010C9449050C94850540
:100050000C94F7010C94F7010C94F7010C94F70140
:100060000C94F7010C94F701602D6F2D732D7A2DF0
:10007000802DA42DAD2DB82DC32DCD2DCD2DCD2D65
:10008000CD2DCD2DCD2DCD2DCD2DCD2DCD2DCD2DA0
:10009000CD2DCD2DCD2DCD2DCD2DCD2DCD2DCD2D90
:1000A000CD2DCD2DCD2DCD2D602D672D6F2D732D0B
:1000B0007A2D802D872D922D9D2D084AD73B3BCE42
:1000C000016E84BCBFFDC12F3D6C74319ABD568357
:1000D0003DDA3D00C77F11BED9E4BB4C3E916BAA0F
:1000E000AABE000000803F05A84CCDB2D44EB9385E
:1000F00036A9020C50B9918688083CA6AAAA2ABE45
:10010000000000803F0664EC1B3C04BC163E3BE54F
:10011000B93CC93C37C29E5A3D660498083EEA691C
:10012000AAAA3E000000803F07634236B79BD8A7CB
:100130001A39685618AEBAAB558C1D3CB7CC57630C
:10014000BD6DEDFD753EF6177231BF000000803FBA
:1001500008000000BE922449123EABAAAA2ABECDD6
:10016000CCCC4C3E00000080BEABAAAAAA3E000048
:100170000000BF000000803F000000000008417840
:10018000D3BB4387D1133D190E3CC3BD4282AD2B77
:100190003E68EC8276BED98FE1A93E4C80EFFFBE6F
:1001A00001C4FF7F3F000000000000407A10F35AB6
:1001B00000A0724E18090010A5D4E80000E87648A7
:1001C000170000E40B54020000CA9A3B000000E153
:1001D000F505000080969800000040420F000000E6
:1001E000A08601000000102700000000E8030000C6
:1001F00000006400000000000A0000000000010090
:10020000000000002C76D888DC674F0823DFC1DFB0
:10021000AE59E1B1B796E5E3E453C63AE6519976B3
:1002200096E8E6C28426EB898C9B62ED407C6FFCED
:10023000EFBC9C9F40F2BAA56FA5F490055A2AF72F
:100240005C936B6CF9676DC11BFCE0E40D47FEF538
:1002500020E6B500D0ED902E0300943577050080A0
:10026000841E080000204E0A000000C80C333333FF
:10027000330F986E12831141EF8D2114893BE6559F
:1002800016CFFEE6DB18D1844B381BF77C1D901D82
:10029000A4BBE424203284725E228100C9F124ECE4
:1002A000A1E53D2700C201000100110011000C0072
:1002B00000E100000A002500250021000096000052
:1002C0001900390039003600127A00001F0046007C
:1002D000460044008070000022004D004D004A009E
:1002E000004B0000360075007500720040380000B9
:1002F0004A009C009C009900802500007200EC00E0
:10030000EC00E900C0120000E900DA01DA01D701CF
:1003100060090000D701B603B603B303B0040000C0
:10032000B3036E076E076B07580200006E07DC0E02
:10033000DC0ED80E2C010000DC0EC11DC11DBE1D3F
:1003400000000000240027002A0000000000250013
:1003500028002B00000000002300260029000404D0
:10036000040404040404020202020202030303035D
:100370000303010204081020408001020408102039
:100380000102040810200000000700020100000321
:100390000406000000000000000048064106112489
:1003A0001FBECFEFD8E0DEBFCDBF12E0A0E0B1E0CE
:1003B000E8E8F5E702C005900D92AE3CB107D9F729
:1003C00015E0AEECB2E001C01D92A13EB107E1F72D
:1003D00013E0CCE9D3E004C02297FE010E947C3AEE
:1003E000CA39D107C9F70E9401330C94B73A0C946B
:1003F0000000283008F027E03327DA01990F311D7B
:1004000087FD916000966105710539F432602E5FB9
:100410003D9330E32A95E1F708959F3F30F080380F
:100420007105610509F03C5F3C5F3D93913008F038
:100430008068911DDF93CF931F930F93FF92EF92EC
:10044000192F987F9695E92F96959695E90FFF2796
:10045000EC5FFD4F99273327EE24FF24A701E70126
:1004600005900894079428F4360FE71EF81E491FDC
:10047000511D660F771F881F991F0694A1F70590DD
:10048000079428F4E70EF81E491F561FC11D770F69
:10049000881F991F661F0694A1F70590079428F4FA
:1004A000F80E491F561FC71FD11D880F991F661FC1
:1004B000771F0694A1F70590079420F4490F561F63
:1004C000C71FD81F990F661F771F881F0694A9F7AB
:1004D00084911095177041F0D695C795579547951B
:1004E000F794E7941A95C1F7EAEAF1E06894159059
:1004F000159135916591959105907FE27395E1187D
:10050000F10A430B560BC90BD009C0F7E10CF11EE1
:10051000431F561FC91FD01D7EF4703311F48A95F6
:10052000E6CFE894015030F0080F0AF400270217D4
:1005300008F4202F2395022F7A3328F079E37D9356
:100540002A95E9F710C07D932A9589F60694979528
:100550006795379517951794E118F10A430B560BD9
:10056000C90BD00998F023957E9173957A3308F0E2
:1005700070E37C932013B8F77E9170617D9330F027
:10058000839571E37D9370E32A95E1F71124EF9051
:10059000FF900F911F91CF91DF91992787FD909543
:1005A0000895EF92FF920F931F93F22FF02E47FDC5
:1005B00002C0E4E001C0E4E1242F332727FD309599
:1005C00037FF03C0309521953F4F4F2D512F0F2FEF
:1005D000EE2E0E947C038F2D912F1F910F91FF9083
:1005E000EF900895FC0188279927E8942191203203
:1005F000E9F3293010F02E30C8F32B3241F02D32C0
:1006000039F4689404C00E947403820F911D2191F3
:1006100020532A30C0F31EF4909581959F4F089582
:100620001F93FC0199278827BC01E894119110328F
:10063000E9F3193010F01E30C8F31B3251F01D32AF
:1006400049F4689406C00E945F03610F711D811D0B
:10065000911D119110531A30B0F33EF4909580958E
:10066000709561957F4F8F4F9F4F1F910895FB01AC
:10067000DC0102C001900D9241505040D8F708951E
:10068000FB01DC018D91019080190110D9F3990BC8
:100690000895FB01DC0101900D920020E1F708951F
:1006A000FB01DC014150504048F001900D920020C8
:1006B000C9F701C01D9241505040E0F70895592FED
:1006C000482F372F262F660F771F881F991F660F19
:1006D000771F881F991F620F731F841F951F660F56
:1006E000771F881F991F08957AE0979F902D879F05
:1006F000802D910D11240895A9E0B0E0E2E8F3E027
:100700000C94843A6A01122FA02EBE2C2BE32017E2
:1007100018F42CE3922E02C0902E9394AE014F5FFA
:100720005F4F27E0092D0E94F901BC018981E82E65
:10073000FF24C70189709070019711F4ADE209C0E0
:10074000B1FE02C0ABE205C0B0FC02C0A0E001C037
:10075000A0E2E3FE3BC0AA2311F423E001C024E0A1
:10076000211710F020E002C0121B212FEB2CB4FE49
:1007700002C0322F0AC0F601322F80E202C08193FC
:1007800031503323E1F7C20ED11CAA2319F0F60130
:10079000A1936F01F6013196E2FE05C09EE4D601F9
:1007A0009C9381E404C09EE6D6019C9381E6119659
:1007B0008C9391833296DF01832F90E202C09D9348
:1007C00081508823E1F7E30FF11D40C0E2FE42C0F3
:1007D000AA2311F423E001C024E0211710F020E047
:1007E00002C0121B212FEB2CB4FE02C0922F0AC0B4
:1007F000F601922F80E202C0819391509923E1F794
:10080000C20ED11CAA2319F0F601A1936F01F601C3
:100810003196E2FE08C089E4D6018C938EE41196ED
:100820008C9386E407C089E6D6018C938EE61196F8
:100830008C9386E681833296DF01892F20E202C005
:100840002D9381508823E1F7E90FF11D10822EEFDF
:100850003FEFAFC0161617061CF041E050E003C092
:10086000AB014F5F5F4FAA2019F480E090E003C016
:100870008A2D90E0019620E030E0AA2311F021E0DB
:1008800030E0240F351F280F391F812F90E02817E3
:10089000390714F020E002C0121B212F4B2D50E02D
:1008A000CA0180719070B4FC0DC0B3FC0BC0F6019E
:1008B000322F40E202C0419331503323E1F7C20EA0
:1008C000D11C01C0322FAA2319F0F601A1936F01A8
:1008D000892B11F0132F0AC0F601132F80E302C0F9
:1008E000819311501123E1F7C30ED11C092D060F7E
:1008F000BA8090E1892E912C8E209F20E4FE04C0C6
:10090000F1E3BF1609F40150101614F001E003C022
:10091000093008F008E09B0177FF02C020E030E0DA
:10092000CB010196821B930BFE013196E80FF91F54
:100930008EE2F82E3B01601A71088A2D90E0442760
:100940005527481B590B8FEF2F3F380719F4D60155
:10095000FD926D01621773072CF06216730614F492
:10096000808101C080E32150304031962417350743
:1009700024F0D6018D936D01E6CF2617370749F491
:10098000B5E3BB1528F0BB1621F48114910409F4DA
:1009900081E3F6018193D601812F90E202C09C93FE
:1009A000815011968823D9F7E10FF11D108220E0C4
:1009B00030E0C9012996EEE00C94A03AFF920F9323
:1009C0001F93CF93DF93EC01F02E8EEF8A832B835E
:1009D0006D834E8380910A058C838F5F80930A0517
:1009E000022F10E0F8013596DE0113966FEF7FEFCE
:1009F0002D912627822F8295807F822790E0382FA5
:100A00002227AC01440F551F440F551F440F551F9B
:100A100024273527672F77276227732724E09595AA
:100A200087952A95E1F768277927319709F72F2DC0
:100A30002627822F8295807F822790E0382F2227D9
:100A4000AC01E3E0440F551FEA95E1F72427352771
:100A5000472F55272427352744E0959587954A95B4
:100A6000E1F728273927DE0118968B81FD01E80F71
:100A7000F11D20838B81A80FB11D11963C93980125
:100A8000285F3F4FC901DF91CF911F910F91FF90D8
:100A900008951F920F920FB60F9211242F933F9338
:100AA0004F938F939F93EF93FF934091C6002091B4
:100AB0007F05309180052F5F3F4F80918305909196
:100AC0008405282339238091810590918205281778
:100AD000390779F080917F0590918005E091850537
:100AE000F0918605E80FF91F40833093800520932D
:100AF0007F05FF91EF919F918F914F913F912F91A2
:100B00000F900FBE0F901F9018951F920F920FB667
:100B10000F9211242F933F938F939F93EF93FF9303
:100B20002091890530918A058091870590918805EB
:100B300028173907E9F08091890590918A05E0919D
:100B40008D05F0918E05E80FF91F80818093C60016
:100B50008091890590918A05019620918B053091AD
:100B60008C058223932390938A058093890510C076
:100B700020918705309188058091890590918A059B
:100B80002817390729F48091C1008F7D8093C10017
:100B9000FF91EF919F918F913F912F910F900FBEF9
:100BA0000F901F9018958F92AF92CF92EF92FF9275
:100BB0000F931F938130910509F042C06F5F7F4F03
:100BC00009F057C08BEF92E060E045EC50E024EC78
:100BD00030E000EC10E0F1ECEF2EF12CCC24C394CB
:100BE000E8E9AE2E70E2872E0E94A12388E193E00F
:100BF00069E046E020E00E94622984E393E065E03A
:100C000043E00E94D52F87E393E00E94902980E083
:100C100094E060E071E00E94C83386E094E060E018
:100C200071E00E94C83388E894E060E071E00E94BF
:100C3000C8338EE894E060E071E00E94C83319C0C8
:100C4000892BB9F46F5F7F4FA1F48EE894E00E9486
:100C5000923488E894E00E94923486E094E00E9406
:100C6000923480E094E00E94923488E193E00E9404
:100C7000EA271F910F91FF90EF90CF90AF908F9048
:100C8000089580E090E06FEF7FEF0E94D305089514
:100C900081E090E06FEF7FEF0E94D30508950F93FE
:100CA0001F938B01FB01238130E0285F3F4FAB0195
:100CB0004E5F5F4FBA01A9010E943703F8012381FB
:100CC00030E0285F3F4FC9011F910F9108954F9267
:100CD0005F926F927F928F929F92AF92BF92CF92CC
:100CE000DF92EF92FF920F931F93DF93CF93CDB7D5
:100CF000DEB7C250D1400FB6F894DEBF0FBECDBFF5
:100D00004090800150908101E0917F01F091CE02EE
:100D10000F2EF0E06F2EF0E07F2EF0E08F2EF0E04F
:100D20009F2EF02D69827A828B829C820F2EF0E0BA
:100D3000AF2EF0E0BF2EF0E8CF2EFFE3DF2EF02D38
:100D4000AD82BE82CF82D88669867A868B869C8663
:100D50006D867E868F86988A698B7A8B8B8B9C8B2F
:100D60002D8B3E8B4F8B588FE98EFA8E0B8F1C8FFD
:100D70001E8E1D8E80E190E098A38F8FE9A3FAA3C9
:100D800083E08BA382E08CA31DA2DE01A556BF4F9A
:100D9000FE01319685E201900D928150E1F7B3E9B1
:100DA000EB2EF12CEC0EFD1E87E2F7018783C701C5
:100DB000642D452D25E20EEF0E94DE048E010A5DB2
:100DC0001F4FC801B7010E944F06AC018BEF92E0A4
:100DD000B8010E941233CE5FDE4F0FB6F894DEBF2B
:100DE0000FBECDBFCF91DF911F910F91FF90EF907C
:100DF000DF90CF90BF90AF909F908F907F906F903B
:100E00005F904F900895EF92FF920F931F93DF939F
:100E1000CF93CDB7DEB7C35ED0400FB6F894DEBF38
:100E20000FBECDBF609180014091810120917F0173
:100E30003091CE0280E896E99A8389832B833C83A4
:100E400086E08D8381E08E83DE01A458BF4FFE01D2
:100E5000319686E001900D928150E1F784E7E82E0B
:100E6000F12CEC0EFD1E82E4F7018783C70126E01A
:100E700004E90E94DE048E01095F1F4FC801B7011B
:100E80000E944F06AC018BEF92E0B8010E94123332
:100E9000CD51DF4F0FB6F894DEBF0FBECDBFCF915F
:100EA000DF911F910F91FF90EF9008952F923F9245
:100EB0004F925F926F927F928F929F92AF92BF926A
:100EC000CF92DF92EF92FF920F931F93DF93CF9316
:100ED000CDB7DEB7CE5FD0400FB6F894DEBF0FBE01
:100EE000CDBF9E8F8D8FCD5EDE4F488059806A804A
:100EF0007B80C351D1404093DA025093DB02609370
:100F0000DC027093DD020093DE021093DF02209377
:100F1000E0023093E102C092E202D092E302E0925A
:100F2000E402F092E5028092E6029092E702A0923B
:100F3000E802B092E9024092EA025092EB0260921B
:100F4000EC027092ED02C95EDE4F88819981AA8120
:100F5000BB81C751D1408093EE029093EF02A093E2
:100F6000F002B093F102C55EDE4F88819981AA81BB
:100F7000BB81CB51D1408093F2029093F302A093B6
:100F8000F402B093F502AD8DBE8DB093D002A09364
:100F9000CF022090800130908101E0917F01F0919B
:100FA000CE02A091D10249835A836B837C830D8347
:100FB0001E832F833887C986DA86EB86FC868D866A
:100FC0009E86AF86B88A498A5A8A6B8A7C8AC95EAD
:100FD000DE4F288139814A815B81C751D1402D8BF9
:100FE0003E8B4F8B588FC55EDE4F288139814A81F9
:100FF0005B81CB51D140298F3A8F4B8F5C8FEF8F24
:10100000F8A3A9A3DE01A956BF4FFE01319681E2E4
:1010100001900D928150E1F74FE8E42EF12CEC0E97
:10102000FD1E8CE4D70117968C93C701622D432DCA
:1010300021E208E90E94DE048E010E5D1F4FC80107
:10104000B7010E944F06AC018BEF92E0B8010E94FD
:101050001233C250DF4F0FB6F894DEBF0FBECDBFC4
:10106000CF91DF911F910F91FF90EF90DF90CF9084
:10107000BF90AF909F908F907F906F905F904F90B8
:101080003F902F9008958F929F92AF92BF92CF92F0
:10109000DF92FF920F931F93CF93DF93F62E4901B8
:1010A000C82EDD248601000F111F5801AC0CBD1C99
:1010B000E501CC0FDD1FCC0FDD1FCD5FDA4F1882AD
:1010C0008B819C818430910509F48EC08530910517
:1010D0005CF48230910509F443C0833091050CF033
:1010E000BFC09923C4F44FC28730910509F443C1AE
:1010F0008830910544F48530910509F4DEC00697E7
:1011000009F041C207C18830910509F47AC10997F5
:1011100009F039C2E7C18EEF681709F034C282E0E6
:1011200090E09C838B8380E790E0C89ED001C99EAD
:10113000B00DD89EB00D1124A15FBA4F13961C922A
:10114000139788E390E0C89EF001C99EF00DD89EE9
:10115000F00D1124EE0FFF1FEF5EFA4F6083A4C164
:10116000E5E6E61788F489818F5F8983F501EE0F44
:10117000FF1FEE0FFF1FEB5FFA4F80818F5F8083B1
:10118000188281E090E02DC080E790E0C89EF001D9
:10119000C99EF00DD89EF00D1124E15FFA4F6383D4
:1011A0001D8280818627282F2295207F282730E0E6
:1011B000522F4427C90163E0880F991F6A95E1F710
:1011C00048275927818190E04827592784E03595A1
:1011D00027958A95E1F7422753275183408384E07E
:1011E00090E09C838B83CFC18CE190E0C89EF0019E
:1011F000C99EF00DD89EF00D1124EE0FFF1FEE0FCB
:10120000FF1FED5EFA4F608380E790E0C89EF0011B
:10121000C99EF00DD89EF00D1124E15FFA4F808138
:101220008627282F2295207F282730E0522F442719
:10123000C901B3E0880F991FBA95E1F748275927EC
:10124000818190E048275927A4E035952795AA95F4
:10125000E1F7422753275183408383E090E0C1CFD9
:1012600080E790E0C89EF001C99EF00DD89EF00D79
:101270001124E15FFA4F658380818627282F22950C
:10128000207F282730E0522F4427C90163E0880FD0
:10129000991F6A95E1F748275927818190E04827EF
:1012A000592704E0359527950A95E1F742275327FA
:1012B0005183408385E090E094CF80E790E0C89E22
:1012C000F001C99EF00DD89EF00D1124E15FFA4F98
:1012D000668380818627282F2295207F282730E06B
:1012E000522F4427C901B3E0880F991FBA95E1F73F
:1012F00048275927818190E048275927A4E0359550
:101300002795AA95E1F7422753275183408386E02A
:1013100090E067CF80E790E0C89EF001C99EF00D95
:10132000D89EF00D1124E15FFA4F678380818627F4
:10133000282F2295207F282730E0522F4427C901EB
:1013400063E0880F991F6A95E1F748275927818143
:1013500090E04827592794E0359527959A95E1F72D
:1013600042275327518340838381882309F446C051
:1013700087E090E036CF6D81F80183E0EE0FFF1F2C
:101380008A95E1F7E01BF10B3196B3E0EE0FFF1FFA
:10139000BA95E1F7E60FF11DE15FFA4FF0826F5F5A
:1013A0006D8380E790E0C89EF001C99EF00DD89E45
:1013B000F00D1124E15FFA4F80818F25282F2295AF
:1013C000207F282730E0522F4427C90173E0880F7F
:1013D000991F7A95E1F748275927818190E048279E
:1013E000592794E0359527959A95E1F74227532799
:1013F000518340838381681709F0C5C088E090E07D
:10140000F0CE80E790E0C89ED001C99EB00DD89E76
:10141000B00D1124A15FBA4F9C911796EC911797CC
:10142000F0E0E657FE4F80818927482F4295407FA4
:10143000482750E0342F2227CA01F3E0880F991F74
:10144000FA95E1F72827392711968C91119790E0AA
:1014500028273927E4E055954795EA95E1F72427B1
:10146000352711963C932E93862F90E0307082178B
:101470009307F9F0F501EE0FFF1FEE0FFF1FEB5F73
:10148000FA4F80818F5F8083188281E090E09C8397
:101490008B83FEEF6F1709F076C082E090E09C83AB
:1014A0008B8313961C9213978FEF9FEF8D939C93D2
:1014B0006AC089E090E09C838B83F80163E0EE0FC3
:1014C000FF1F6A95E1F7E01BF10B319653E0EE0F39
:1014D000FF1F5A95E1F78D81E80FF11DE15FFA4F8B
:1014E000F08251C0262F30E080E790E0C89EB00126
:1014F000C99E700DD89E700D1124615F7A4FFB015B
:10150000818190E028173907E9F0F501EE0FFF1F00
:10151000EE0FFF1FEB5FFA4F80818F5F8083188291
:1015200081E090E09C838B83FEEFFF1661F582E003
:1015300090E09C838B83EB011B828FEF9FEF99835D
:10154000888321C081E0888381E090E09C838B8345
:10155000F80133E0EE0FFF1F3A95E1F7E01BF10BC6
:10156000319623E0EE0FFF1F2A95E1F78D81E80FFA
:10157000F11DE05FFA4FF082DA01FB0180E7019094
:101580000D928150E1F7D601AA0FBB1FAC0DBD1D16
:10159000AA0FBB1FAA0FBB1FAD5FBA4F8C91813042
:1015A00069F58CE190E0C89EF001C99EF00DD89ECF
:1015B000F00D1124EE0FFF1FEE0FFF1FED5EFA4F2F
:1015C000808116968C93169718968D919C911997F9
:1015D000892B21F41B961C921E921A97F601EE0F8E
:1015E000FF1FEC0DFD1DEE0FFF1FEE0FFF1FED5F48
:1015F000FA4F80859185019691878087F601EE0FDD
:10160000FF1FEC0DFD1DEE0FFF1FEE0FFF1FDF0193
:10161000AD5FBA4F16968C9116978F5FE4018E835B
:1016200018968D919C91199799878887EB5FFA4F4F
:1016300080818A871B8610828C91DF91CF911F91C8
:101640000F91FF90DF90CF90BF90AF909F908F90C1
:1016500008958F929F92AF92BF92CF92DF92EF92B6
:10166000FF920F931F93DF93CF93CDB7DEB7C15A8D
:10167000D0400FB6F894DEBF0FBECDBF42E3842E3C
:10168000912C8C0E9D1E3AE0A32EB12CAC0EBD1EEB
:101690008E01065C1F4F6E010894C11CD11C26E10F
:1016A000E22EF12CEC0EFD1E5DC08BEF92E00E944D
:1016B0002324682F80E0A40195010E944308882319
:1016C00009F450C089AD882321F0813209F04AC065
:1016D0000CC08DE061E00E942431D601F80189E060
:1016E00001900D928150E1F73DC0D701F8018CE1E6
:1016F00001900D928150E1F76EA17FA188A599A577
:1017000028EE33E040E050E00E944B3A3093E5038E
:101710002093E4036A8D7B8D8C8D9D8D0E94A8366D
:1017200020E836E948E15BE40E940D366093D2027E
:101730007093D3028093D4029093D5026E8D7F8DE7
:1017400088A199A10E94A83620E836E948E15BE427
:101750000E940D366093D6027093D7028093D80210
:101760009093D9028BEF92E00E94F323181619068A
:101770000CF49BCFCF55DF4F0FB6F894DEBF0FBEF2
:10178000CDBFCF91DF911F910F91FF90EF90DF9030
:10179000CF90BF90AF909F908F9008952F923F92DF
:1017A0004F925F926F927F928F929F92AF92BF9271
:1017B000CF92DF92EF92FF920F931F93DF93CF931D
:1017C000CDB7DEB7C456D0400FB6F894DEBF0FBE1B
:1017D000CDBF9E8F8D8F4A9661E071E00E943C33B1
:1017E000882309F459C0ED8DFE8DEC5BFF4F6081BD
:1017F0007181828193810E9475368B0177FF03C0CE
:10180000109501951F4F06501040B801882777FDAD
:101810008095982F0A5F1F4F0E94A83620E030E085
:1018200040EC5FE30E94063688231CF486E090E0DB
:1018300029C009501040B801882777FD8095982F5E
:10184000075F1F4F0E94A83620E030E040EC5FE3C6
:101850000E94063688231CF489E090E025C00C50D5
:101860001040B801882777FD8095982F0E94A836F0
:1018700020E030E040EC5FE30E94063688234CF421
:101880008CE090E0AD8DBE8D97969C938E9396974D
:101890000FC08FE090E008C0AD8DBE8D5A968D913F
:1018A0009C915B970E94F202ED8DFE8D97A386A31B
:1018B0002D8D3E8D245A3F4FD901ED90FD900D9115
:1018C0001D91AD90BD90CD90DC901397A056B04087
:1018D000BE8FAD8FC801B701A60195010E947A3570
:1018E0006F8F78A389A39AA3C801B701A6019501B8
:1018F0000E9479352F8D38A149A15AA10E940D3639
:101900006BA37CA38DA39EA39B01AC010E94CA374D
:101910006FA378A789A79AA7BFA16096BFAF60976A
:10192000E8A56196EFAF619762968FAF6297639675
:101930009FAF63976BA17CA18DA19EA120E030E0B9
:1019400040E850E40E942D3864966FAF6497659626
:101950007FAF659766968FAF669767969FAF6797DD
:101960006BA17CA18DA19EA120E030E040E450E479
:101970000E942D3868966FAF689769967FAF699718
:101980006A968FAF6A976B969FAF6B976BA17CA19E
:101990008DA19EA120E030E040EA50E40E942D3865
:1019A0006C966FAF6C976D967FAF6D976E968FAF9D
:1019B0006E976F969FAF6F97AD8DBE8D96960D907B
:1019C000BC91A02DA596BFAFAEAFA597BD0188274E
:1019D00077FD8095982F0E94A8369B01AC01ED8D74
:1019E000FE8DEC5BFF4FFE8FED8F608171818281F8
:1019F00093810E94793525E33AEF4EE85CE30E943B
:101A0000CA376BA77CA78DA79EA7AD8DBE8D9E9173
:101A10008E917E916E91BE8FAD8F20E030E044E3D9
:101A200053E40E940D362BED3FE049E450E40E9460
:101A3000CA376FA778AB89AB9AABED8DFE8DB496A4
:101A40006080718082809380E456F040FE8FED8F3D
:101A50000E9479389B01AC010E94CA379B01AC01FE
:101A6000C401B3010E94CA379B01AC0160E070E081
:101A700080E89FE30E9479350E9483389B01AC0186
:101A8000C801B7010E940D366BAB7CAB8DAB9EAB32
:101A90006FA578A989A99AA90E940A36698F7A8FB9
:101AA0008B8F9C8F9B01AC010E94CA37A0966FAFB1
:101AB000A097A1967FAFA197A2968FAFA297A3966A
:101AC0009FAFA397C801B701A80197010E94CA3729
:101AD0007B018C01C601B501A60195010E94CA37A0
:101AE0009B01AC01C801B7010E940D36A40193010E
:101AF0000E94CA37A3962CAD3DAD4EAD5FADA39706
:101B00000E94CA370E9483386D837E838F839887B3
:101B10006FA578A989A99AA90E94D03869837A8388
:101B20008B839C836FA578A989A99AA99B01AC0195
:101B30000E947A350E9479386D8B7E8B8F8B988FBF
:101B40006FA578A989A99AA920E030E040E850E47F
:101B50000E94CA370E947938698B7A8B8B8B9C8B59
:101B60006FA578A989A99AA920E030E040EC50E45B
:101B70000E94CA370E9479386D877E878F87988B3D
:101B80006FA578A989A99AA920E030E040E051E446
:101B90000E94CA370E94793869877A878B879C8729
:101BA000698D7A8D8B8D9C8D20E030E040E850E48B
:101BB0000E942D385B016C0169817A818B819C8147
:101BC0009B01AC010E94CA376FAB78AF89AF9AAF67
:101BD0006D817E818F81988520E030E040E850E47F
:101BE0000E942D383B014C016BA57CA58DA59EA5BF
:101BF00020E030E040E850E40E942D381B012C0129
:101C00006F8D78A189A19AA120E030E040E05FE3E8
:101C10000E94CA376BAF7CAF8DAF9EAF63966CAD41
:101C20007DAD8EAD9FAD639720E030E040E85EE390
:101C30000E94CA3720E030E040E85FE30E947A3536
:101C40007B018C0167966CAD7DAD8EAD9FAD6797C6
:101C500020E030E040E85CE30E94CA379B01AC0121
:101C6000C801B7010E947A359B01AC016BAD7CAD18
:101C70008DAD9EAD0E94CA3723966CAF7DAF8EAFFF
:101C80009FAF23976BA17CA18DA19EA120E030E0A6
:101C900040EC5FEB0E94CA377B018C016B966CAD08
:101CA0007DAD8EAD9FAD6B9720E030E040E15FE30E
:101CB0000E94CA379B01AC01C801B7010E947A3566
:101CC0007B018C016F966CAD7DAD8EAD9FAD6F9736
:101CD00020E030E040EC5DEB0E94CA379B01AC0194
:101CE000C801B7010E947A352D893E894F89588DE8
:101CF0000E94CA379B01AC016FA578A989A99AA94E
:101D00000E947A3527966CAF7DAF8EAF9FAF279735
:101D10006FA178A589A59AA520E030E040E75FE3B0
:101D20000E94CA377B018C0167966CAD7DAD8EAD8C
:101D30009FAD679720E030E040EF5EEB0E94CA372E
:101D40009B01AC01C801B7010E947A3529893A8903
:101D50004B895C890E94CA379B01AC0127966CAD08
:101D60007DAD8EAD9FAD27970E947A352B966CAFD7
:101D70007DAF8EAF9FAF2B976B966CAD7DAD8EAD6B
:101D80009FAD6B972BEA3AEA4AE35FEB0E94CA37B2
:101D90007B018C016F966CAD7DAD8EAD9FAD6F9765
:101DA00020E030E042ED5EE30E94CA379B01AC01C7
:101DB000C801B7010E947A352D853E854F85588927
:101DC0000E94CA379B01AC012B966CAD7DAD8EADE8
:101DD0009FAD2B970E947A357B018C0167966CAD85
:101DE0007DAD8EAD9FAD679720E030E84DE15FE3BC
:101DF0000E94CA3729853A854B855C850E94CA377F
:101E00009B01AC01C801B7010E947A359B01AC016E
:101E100023966CAD7DAD8EAD9FAD23970E94CA37E2
:101E20007B018C0169817A818B819C8120E030E08B
:101E300040E05FE30E94CA372BA93CA94DA95EA9E7
:101E40000E94CA37A3962CAD3DAD4EAD5FADA397B2
:101E50000E94CA372BA53CA54DA55EA50E94CA3796
:101E60002BA53CA54DA55EA50E94CA379B01AC01E0
:101E7000C801B7010E947A352F966CAF7DAF8EAF47
:101E80009FAF2F9769817A818B819C8120E030E020
:101E900040EC51E40E940D362BA93CA94DA95EA946
:101EA0000E94CA37A60195010E94CA375B016C01E6
:101EB00060E070E080EA90E42FA938AD49AD5AADFA
:101EC0000E9479357B018C016D817E818F8198859F
:101ED00020E030E040E151E40E94CA372D813E818C
:101EE0004F8158850E94CA379B01AC01C801B701D8
:101EF0000E947A357B018C01C401B30120E030E0FF
:101F000040E850E40E94CA379B01AC01C801B70108
:101F10000E947A359B01AC01C601B5010E94CA3707
:101F2000A20191010E94CA379B01AC012F966CADB2
:101F30007DAD8EAD9FAD2F970E947A35AD8DBE8D54
:101F40006D937D938D939C931397698D7A8D8B8D73
:101F50009C8D20E030E040E450E40E942D387B016D
:101F60008C016BA57CA58DA59EA520E030E040E40A
:101F700050E40E942D385B016C016BA97CA98DA9EE
:101F80009EA9298D3A8D4B8D5C8D0E94CA372BA559
:101F90003CA54DA55EA50E94CA371B012C016BA96B
:101FA0007CA98DA99EA920E030E040EC50E40E947D
:101FB0000D36A80197010E94CA373B014C0160E031
:101FC00070E080E89FE32FA938AD49AD5AAD0E947B
:101FD00079357B018C016D817E818F8198859B0194
:101FE000AC010E94CA379B01AC01C801B7010E9435
:101FF0007A359B01AC01C401B3010E94CA37A60126
:1020000095010E94CA379B01AC01C201B1010E9437
:102010007A3520E034E244EF58E40E947A357B01BF
:102020008C01A5968EAD9FADA59763E070E00E94F0
:10203000163A882777FD8095982F20E432E44FE008
:1020400050E00E94F7390E94A8369B01AC01C801FC
:10205000B7010E947A35ED8DFE8D6483758386838A
:102060009783A5962EAD3FADA59735872487CC598C
:10207000DF4F0FB6F894DEBF0FBECDBFCF91DF911B
:102080001F910F91FF90EF90DF90CF90BF90AF9096
:102090009F908F907F906F905F904F903F902F9088
:1020A00008952F923F924F925F926F927F928F92FC
:1020B0009F92AF92BF92CF92DF92EF92FF920F93D7
:1020C0001F93DF93CF93CDB7DEB7CE55D0400FB679
:1020D000F894DEBF0FBECDBF23969FAF8EAF239780
:1020E0002596FFAEEEAE25972796DFAECEAE2797AC
:1020F000DC011E964D935D936D937C935197FC018B
:10210000028B138B248B358B80E090E0AAEFB3E435
:10211000868B978BA08FB18FCF014A9661E071E0DB
:102120000E94E13323968EAD9FAD23978096219632
:102130009FAF8EAF219769E171E00E94E133239652
:10214000AEADBFAD2397A45BBF4F2396BFAFAEAF7D
:10215000239782E395EAA2ECBAE42396EEADFFADB5
:10216000239781939193A193B19381E29EEFA1EC88
:10217000BAE481939193A193B1932396FFAFEEAF0D
:1021800023976AECE62E5EEFF52E03E116E5C80113
:10219000B7012AE231E043E156E50E947935A80112
:1021A00097010E940D367B018C012396AEADBFAD29
:1021B00023976D937D938D939D932396BFAFAEAF81
:1021C000239787E59AEBABE5BBE32396EEADFFAD36
:1021D000239781939193A193B1938AE69FE9A2EC0F
:1021E000BAE481939193A193B1938EED98EFA1EC12
:1021F000BAE481939193A193B19387EF93EBAAED06
:10220000BBE380839183A283B383E456F04023969B
:10221000FFAFEEAF2397668577858089918920E0AF
:1022200030E044E353E40E940D362BED3FE049E4F7
:1022300050E40E94CA375B016C01C6010E947938E4
:102240009B01AC010E94CA379B01AC01CA01A801E5
:1022500097010E94CA379B01AC0160E070E080E802
:102260009FE30E9479350E9483389B01AC0162E3B1
:1022700075EA82EC9AE40E940D362B966CAF7DAF26
:102280008EAF9FAF2B97B501C6010E940A366BAF88
:102290007CAF8DAF9EAF2396AEADBFAD2397529668
:1022A0006D917D918D919C91559720E030E044E3B4
:1022B00053E40E940D362BED3FE049E450E40E94C8
:1022C000CA373B014C010E940A367B018C012B96D8
:1022D0006CAD7DAD8EAD9FAD2B972396EEADFFAD72
:1022E000239726893789408D518D0E947A351B01AD
:1022F0002C012BAD3CAD4DAD5EAD0E94CA37A8019F
:1023000097010E94CA372396AEADBFAD239798962A
:102310006D937D938D939C939B97C601B5010E940D
:102320000A367B018C01C401B3010E9479383B015C
:102330004C01C201B101A80197010E94CA37A40152
:1023400093010E94CA372396EEADFFAD239764A791
:1023500075A786A797A7C601B5010E9479387B01AA
:102360008C012B966CAD7DAD8EAD9FAD2B9721E290
:102370003EEF41EC5AE40E94CA3721E23EEF41ECC5
:102380005AE40E94CA372AEC3EEF43E156E50E9428
:102390000D362396AEADBFAD239756962D913D9148
:1023A0004D915C9159970E947A35A80197010E943E
:1023B000CA372396EEADFFAD239760AB71AB82AB0E
:1023C00093AB8E010F5F1F4FC80121966EAD7FAD9D
:1023D00021970E948834C80169E171E00E943C3372
:1023E000882309F443C023968EAD9FAD239784596B
:1023F0009F4F23969FAF8EAF239786E696E8A5E181
:10240000B4EC2396EEADFFAD239781939193A19306
:10241000B19386E696E6A3E9B2EC81939193A193FA
:10242000B1938AE999E1A1EDB3EC81939193A193E2
:10243000B19387E199EDAEE4BEE381939193A193CB
:10244000B1938CEE91E5A8E3BDE381939193A193C1
:10245000B19388EB9EE1ADE1B0EC81939193A193B0
:10246000B19386E696E6A6EDB0EC4AC0C80163E3F8
:1024700071E00E943C33882309F44CC023968EAD52
:102480009FAD239784599F4F23969FAF8EAF23977D
:102490008DED94E5A0E1B4EC2396EEADFFAD23976E
:1024A00081939193A193B1938CE092E4A4EBB2EC6D
:1024B00081939193A193B19382EA95EFA7EEB3EC48
:1024C00081939193A193B1938EE492E6A4EAB0E450
:1024D00081939193A193B19388E09CEAACEBBFE325
:1024E00081939193A193B19386E091E8A9EAB0E436
:1024F00081939193A193B1938FE692E1ABE1B0EC1C
:1025000080839183A283B383E458F0402396FFAF86
:10251000EEAF2397CE0101960E9492342396EEAD42
:10252000FFAD2397E858FF4F6081718182819381CD
:102530002BED3FE049E450E40E94CA3720E030E050
:1025400044E353E40E940D3620E030E041E655E4D8
:102550000E940D362F966CAF7DAF8EAF9FAF2F9739
:102560002396EEADFFAD2397E458FF4F6081718154
:10257000828193812BED3FE049E450E40E94CA3709
:1025800020E030E044E353E40E940D3620E030E0E8
:1025900041E655E40E940D3663966CAF7DAF8EAF79
:1025A0009FAF63972396EEADFFAD2397E058FF4FA3
:1025B00060817181828193812BED3FE049E450E499
:1025C0000E94CA3720E030E044E353E40E940D3615
:1025D00020E030E041E655E40E940D363B014C011D
:1025E0002396EEADFFAD2397EC57FF4F60817181CD
:1025F000828193812DEB37E346E855E30E94CA3789
:1026000020E030E040E85FE30E947A355B016C0136
:102610002396AEADBFAD239798968D919D910D9069
:10262000BC91A02D8F8B988FA98FBA8F2396AEADBA
:10263000BFAD23979C968D919D910D90BC91A02D3F
:102640008B8F9C8FAD8FBE8F63968CAD9DADAEADE5
:10265000BFAD6397B0588F8F98A3A9A3BAA3239651
:10266000AEADBFAD2397D0968D919D910D90BC914D
:10267000A02D8BA39CA3ADA3BEA3D401C301B058CE
:102680008FA398A7A9A7BAA72F968CAD9DADAEAD85
:10269000BFAD2F97B0588BA79CA7ADA7BEA7239619
:1026A000AEADBFAD2397A459BF4FFD01819191916C
:1026B000A191B1918FA798ABA9ABBAAB8191919140
:1026C000A191B1918BAB9CABADABBEAB8081918145
:1026D000A281B3818FAB98AFA9AFBAAFE457F040F6
:1026E0002396FFAFEEAF2397C401B3012B8D3C8D32
:1026F0004D8D5E8D0E94CA379B01AC016F89788D2C
:10270000898D9A8D0E947A357B018C016F8D78A11D
:1027100089A19AA12BA13CA14DA15EA10E94CA371B
:102720009B01AC01C801B7010E947A35A601950151
:102730000E94CA371B012C016FA578A989A99AA903
:10274000A60195010E94CA377B018C01C401B30127
:102750002BA93CA94DA95EA90E94CA37A6019501E3
:102760000E94CA379B01AC01C801B7010E947A35AB
:102770007B018C016F8D78A189A19AA12FA938AD19
:1027800049AD5AAD0E94CA37A60195010E94CA37C9
:102790009B01AC01C801B7010E947A359B01AC01D5
:1027A000C201B1010E947A3567966CAF7DAF8EAFE2
:1027B0009FAF67972396EEADFFAD239764AB75ABE4
:1027C00086AB97AB6FA178A589A59AA52F89388D7F
:1027D000498D5A8D0E94CA372B8D3C8D4D8D5E8D53
:1027E0000E947A357B018C012F966CAD7DAD8EAD4C
:1027F0009FAD2F972BA13CA14DA15EA10E94CA378E
:102800009B01AC01C801B7010E947A35A601950170
:102810000E94CA373B014C016FA178A589A59AA5F2
:102820002FA538A949A95AA90E94CA37A60195011E
:102830000E94CA377B018C016BA97CA98DA99EA936
:10284000A60195010E94CA379B01AC01C801B701DE
:102850000E947A357B018C012F966CAD7DAD8EADDB
:102860009FAD2F972FA938AD49AD5AAD0E94CA37F9
:10287000A60195010E94CA379B01AC01C801B701AE
:102880000E947A359B01AC01C401B3010E947A35E4
:102890006B966CAF7DAF8EAF9FAF6B972396AEAD4F
:1028A000BFAD2397D8966D937D938D939C93DB97C3
:1028B00063966CAD7DAD8EAD9FAD63972F89388DDE
:1028C000498D5A8D0E94CA377B018C016BA57CA56E
:1028D0008DA59EA52B8D3C8D4D8D5E8D0E94CA379A
:1028E0009B01AC01C801B7010E947A352BA13CA124
:1028F0004DA15EA10E947A35A60195010E94CA37BA
:102900003B014C0163966CAD7DAD8EAD9FAD639781
:102910002FA538A949A95AA90E94CA37A60195012D
:102920000E94CA377B018C016BA57CA58DA59EA555
:102930002BA93CA94DA95EA90E94CA37A601950101
:102940000E94CA379B01AC01C801B7010E947A35C9
:102950007B018C016FA978AD89AD9AADA601950177
:102960000E94CA379B01AC01C801B7010E947A35A9
:102970009B01AC01C401B3010E947A353B014C01BB
:102980002396EEADFFAD239764AF75AF86AF97AFDB
:1029900067966CAD7DAD8EAD9FAD67979B01AC0129
:1029A0000E94CA377B018C016B966CAD7DAD8EADFC
:1029B0009FAD6B979B01AC010E94CA379B01AC0194
:1029C000C801B7010E947A350E9483386F87788BDF
:1029D000898B9A8B23968EAD9FAD2397845A9F4FF8
:1029E000DC012D903D904D905D90FD018191919184
:1029F000A191B1912396FFAFEEAF23978F83988774
:102A0000A987BA87C401B301A20191010E94CA3704
:102A10007B018C016F85788989899A892F81388516
:102A200049855A850E94CA379B01AC01C801B7018C
:102A30000E940D360E94DE357B018C012396AEADDF
:102A4000BFAD23978D919D910D90BC91A02D8B874B
:102A50009C87AD87BE87BC01CD01A20191010E9478
:102A6000CA376F966CAF7DAF8EAF9FAF6F97C801BF
:102A7000B7010E94793820E030E040E450E40E9441
:102A80002D385B016C01C801B7010E940A3620E0B5
:102A900030E040E450E40E942D387B018C016F96B9
:102AA0006CAD7DAD8EAD9FAD6F97A20191010E947F
:102AB000CA372F81388549855A850E940D36A6016F
:102AC00095010E94CA379B01AC01C401B3010E9469
:102AD0007A355B016C016F966CAD7DAD8EAD9FADAF
:102AE0006F97A80197010E94CA379B01AC016F85BF
:102AF000788989899A890E9479359B01AC01C60140
:102B0000B5010E940D360E94DE353B014C016B96EB
:102B10006CAD7DAD8EAD9FAD6B9767962CAD3DAD29
:102B20004EAD5FAD67970E940D360E94DE356B8B10
:102B30007C8B8D8B9E8BC401B3010E9479389B01E5
:102B4000AC010E94CA379B01AC016B857C858D85E9
:102B50009E850E94CA379B01AC0160E070E080E86E
:102B60009FE30E9479350E9483385B016C01C401A8
:102B7000B3010E940A369B01AC016F85788989896F
:102B80009A890E940D367B018C01C201B101A60118
:102B900095010E940D369B01AC01C801B7010E944E
:102BA00079357B018C012396EEADFFAD2397B49769
:102BB0002396FFAFEEAF2397C401B30120E030E0CE
:102BC00044E353E40E94CA372BED3FE049E450E46C
:102BD0000E940D362396AEADBFAD23976D937D93C6
:102BE0008D939D932396BFAFAEAF23976B897C895E
:102BF0008D899E8920E030E044E353E40E94CA3787
:102C00002BED3FE049E450E40E940D362396EEADF3
:102C1000FFAD23976193719381939193C701D8017D
:102C200080839183A283B383E854F0402396FFAF5F
:102C3000EEAF239780879187A287B387CF010E9449
:102C4000CE0B2396EEADFFAD239784819581A681AF
:102C5000B7812596EEADFFAD259780839183A28342
:102C6000B3832396EEADFFAD239780819181A2813E
:102C7000B3812796EEADFFAD279780839183A28322
:102C8000B383C25ADF4F0FB6F894DEBF0FBECDBF7D
:102C9000CF91DF911F910F91FF90EF90DF90CF9038
:102CA000BF90AF909F908F907F906F905F904F906C
:102CB0003F902F9008952F923F924F925F926F9284
:102CC0007F928F929F92AF92BF92CF92DF92EF92BC
:102CD000FF920F931F93DF93CF93CDB7DEB7C2550B
:102CE000D0400FB6F894DEBF0FBECDBF9EA78DA714
:102CF0004A9661E071E00E943C33882391F1ADA5D2
:102D0000BEA552964D915D916D917C9155977E0136
:102D10000894E11CF11CC70122E00E94FA33E7E0AD
:102D2000CE2ED12CCC0EDD1EC601B70140E050E006
:102D300021E030E00E942A348F8198850E94F202BF
:102D40008C01C6010E949234C801880F991F800F20
:102D5000911FEDA5FEA597A386A3C7010E949234FB
:102D60000CC0ADA5BEA55A968D919C915B970E9413
:102D7000F202EDA5FEA597A386A38DA59EA5885A70
:102D80009F4FFC0181919191A191B19189A79AA73F
:102D9000ABA7BCA780819181A281B3818DA39EA3A3
:102DA000AFA3B8A7EC55F040FEA7EDA769A57AA59B
:102DB0008BA59CA52DA13EA14FA158A50E947A35B7
:102DC0007B018C0169A57AA58BA59CA52DA13EA1AF
:102DD0004FA158A50E947935A80197010E940D3690
:102DE0006FA778AB89AB9AAB20E030E040E850E4C5
:102DF0000E942D3860966FAF609761967FAF6197A4
:102E000062968FAF629763969FAF63976FA578A91D
:102E100089A99AA920E030E040E450E40E942D38CE
:102E20001B012C016FA578A989A99AA920E030E09F
:102E300040EA50E40E942D383B014C01EDA5FEA56F
:102E400066A177A1882777FD8095982F0E94A836E4
:102E50006BAB7CAB8DAB9EAB20E030E040E450E44C
:102E60000E940D3620E034E244E759EC0E94CA3754
:102E7000ADA5BEA552962D913D914D915C91559772
:102E80000E947A3520E034E244EF58E40E9479351C
:102E90006FAB78AF89AF9AAFC801B70120E030E0DF
:102EA00040E05FE30E94CA375B016C016FA578A91F
:102EB00089A99AA920E030E040E85EE30E94CA3781
:102EC0002FA538A949A95AA90E94CA3720E030E0A5
:102ED00040E85FE30E947A357B018C0163966CAD1C
:102EE0007DAD8EAD9FAD639720E030E040E85CE3C0
:102EF0000E94CA379B01AC01C801B7010E947A3514
:102F00009B01AC01C601B5010E94CA379B01AC010F
:102F1000EDA5FEA566857785808991890E940D368D
:102F20005B016C01A60195010E947A350E947938F7
:102F300069A37AA38BA39CA3C601B50120E030E06E
:102F400040E850E40E94CA370E9479386D8F7E8F26
:102F50008F8F98A3C601B50120E030E040EC50E42B
:102F60000E94CA370E947938698F7A8F8B8F9C8F25
:102F7000C601B50120E030E040E051E40E94CA37CC
:102F80000E9479386D8B7E8B8F8B988F6FA578A977
:102F900089A99AA920E030E040EC5FE30E94CA379B
:102FA0007B018C01C201B10120E030E048E55FEB1C
:102FB0000E94CA379B01AC01C801B7010E947A3553
:102FC0007B018C01C401B30120E030E846E05FE3FF
:102FD0000E94CA379B01AC01C801B7010E947A3533
:102FE00029A13AA14BA15CA10E94CA379B01AC0167
:102FF000C601B5010E947A355B016C016FA578A905
:1030000089A99AA920E030E048EA5FE30E94CA3724
:103010002FA538A949A95AA90E94CA377B018C015A
:1030200063966CAD7DAD8EAD9FAD639720E030E0D3
:103030004CED5FEB0E94CA379B01AC01C801B701A0
:103040000E947A352D8D3E8D4F8D58A10E94CA3732
:103050009B01AC01C601B5010E947A355B016C0190
:10306000C201B10125E535E549EC5FE30E94CA37AD
:103070007B018C01C401B30120E030E840E550EC55
:103080000E94CA379B01AC01C801B7010E947A3582
:10309000298D3A8D4B8D5C8D0E94CA379B01AC0106
:1030A000C601B5010E947A357B018C0163966CAD37
:1030B0007DAD8EAD9FAD639720E030E249E050E4F6
:1030C0000E94CA372D893E894F89588D0E94CA3780
:1030D0009B01AC01C801B7010E947A356BAF7CAF90
:1030E0008DAF9EAF8DA59EA5805A9F4FDC016D9040
:1030F0007D908D909C901397A056B040BEA7ADA731
:103100006BAD7CAD8DAD9EAD0E9479389B01AC015D
:103110000E94CA379B01AC01C401B3010E94CA37A7
:103120009B01AC0160E070E080E89FE30E9479358C
:103130000E9483389B01AC0169A57AA58BA59CA54B
:103140000E940D3623966CAF7DAF8EAF9FAF239755
:103150006BAD7CAD8DAD9EAD0E940A36698B7A8BCE
:103160008B8B9C8B9B01AC010E94CA377B018C012D
:1031700069A57AA58BA59CA59B01AC010E94CA37C5
:103180005B016C016DA17EA18FA198A59B01AC0193
:103190000E94CA379B01AC01C601B5010E940D36E1
:1031A000A40193010E94CA37A80197010E94CA375F
:1031B0000E9483385B016C016BAD7CAD8DAD9EAD23
:1031C0000E94D0386D877E878F87988BC601B501A6
:1031D000A60195010E94CA3727966CAF7DAF8EAFCE
:1031E0009FAF279723966CAD7DAD8EAD9FAD239796
:1031F00020E030E040E850E40E942D387B018C0153
:103200006D857E858F8598899B01AC010E94CA37A8
:103210002B966CAF7DAF8EAF9FAF2B97C601B501DC
:1032200020E030E040E850E40E942D383B014C01A2
:103230006FA978AD89AD9AAD20E030E040E850E468
:103240000E942D381B012C016D857E858F85988904
:1032500020E030E040E05FE30E94CA375B016C0190
:1032600023966CAD7DAD8EAD9FAD23979B01AC01D8
:103270000E94CA379B01AC01C601B5010E940D3600
:103280005B016C0160E070E080E89FEB27962CAD5D
:103290003DAD4EAD5FAD27970E9479359B01AC01E6
:1032A000C601B5010E94CA375B016C016FA978ADF8
:1032B00089AD9AAD9B01AC010E94CA379B01AC015C
:1032C000C601B5010E94CA379B01AC016BAD7CAD54
:1032D0008DAD9EAD0E947A352F966CAF7DAF8EAFCF
:1032E0009FAF2F976D857E858F85988920E030E090
:1032F00040EC51E40E940D36A80197010E940D3662
:103300005B016C012B966CAD7DAD8EAD9FAD2B97A7
:1033100020E030E040E450E40E94CA3720E030E092
:1033200040EA50E40E947A357B018C0127966CAD0F
:103330007DAD8EAD9FAD279720E030E040EC50E4AE
:103340000E94CA379B01AC01C801B7010E947A35BF
:103350007B018C012B966CAD7DAD8EAD9FAD2B9717
:1033600020E030E040EC50EC0E94CA3727962CADAC
:103370003DAD4EAD5FAD27970E94CA379B01AC01B2
:10338000C801B7010E947A357B018C01C401B301E9
:1033900020E030E040E850EC0E94CA379B01AC01CD
:1033A000C801B7010E947A357B018C012B966CAD68
:1033B0007DAD8EAD9FAD2B9720E030E040E151EC2C
:1033C0000E94CA37A40193010E94CA379B01AC0135
:1033D000C801B7010E947A359B01AC01C601B50155
:1033E0000E94CA37A20191010E94CA379B01AC0119
:1033F0002F966CAD7DAD8EAD9FAD2F970E947A3527
:1034000020E030E044E353E40E94CA372BED3FE074
:1034100049E450E40E940D36EDA5FEA560A771A712
:1034200082A793A723966CAD7DAD8EAD9FAD2397FC
:1034300020E030E040E450E40E942D387B018C0114
:103440006FA978AD89AD9AAD20E030E040E450E45A
:103450000E942D385B016C0160E070E080E89FE322
:1034600023962CAD3DAD4EAD5FAD23970E940D363A
:1034700029893A894B895C890E940D362FA938AD7C
:1034800049AD5AAD0E94CA373B014C016BEA7AEA5A
:103490008AE29EE3A80197010E940D3629893A89A4
:1034A0004B895C890E940D367B018C012B966CAD9B
:1034B0007DAD8EAD9FAD2B9720E030E040E050EC2D
:1034C0000E94CA3720E030E040E85FE30E9479358F
:1034D00027962CAD3DAD4EAD5FAD27970E94793557
:1034E0009B01AC01C801B7010E94CA37A601950132
:1034F0000E94CA379B01AC01C401B3010E947A3516
:1035000020E030E044E353E40E94CA372BED3FE073
:1035100049E450E40E940D369B01AC016BA97CA9E3
:103520008DA99EA90E947A35ADA5BEA59C966D93E6
:103530007D938D939C939F97CE5ADF4F0FB6F8944F
:10354000DEBF0FBECDBFCF91DF911F910F91FF90D6
:10355000EF90DF90CF90BF90AF909F908F907F9033
:103560006F905F904F903F902F9008952F923F92D1
:103570004F925F926F927F928F929F92AF92BF9283
:10358000CF92DF92EF92FF920F931F93DF93CF932F
:10359000CDB7DEB7CA55D0400FB6F894DEBF0FBE28
:1035A000CDBF9EAF8DAF2196FFAEEEAE2197239695
:1035B000DFAECEAE2397DC011E964D935D936D93E7
:1035C0007C935197FC01028B138B248B358B80E00D
:1035D00090E0A8ECB3E4868B978BA08FB18FCF01DE
:1035E0004A9661E071E00E94E1338DAD9EAD809618
:1035F0009CAF8BAF69E171E00E94E133ADADBEAD30
:10360000A85BBF4FBEAFADAF82E395EAA2ECBAE4D0
:10361000EDADFEAD81939193A193B19381E29EEFC5
:10362000A1ECBAE481939193A193B193FEAFEDAF76
:10363000AAECEA2EFEEFFF2E03E116E5C801B70162
:103640002AE231E043E156E50E947935A80197016D
:103650000E940D36ADADBEAD6D937D938D939D9360
:10366000BEAFADAF87E59AEBABE5BBE3EDADFEAD2D
:1036700080839183A283B383E455F040FEAFEDAF26
:10368000E85AFF4F2596FFAFEEAF25978AE69FE9F0
:10369000A2ECBAE480839183A283B3838DAD9EAD07
:1036A000845A9F4F27969FAF8EAF27978EED98EF46
:1036B000A1ECBAE42796EEADFFAD27978083918306
:1036C000A283B3830DAD1EAD005A1F4F87EF93EB5E
:1036D000AAEDBBE3F80180839183A283B3838DAD10
:1036E0009EAD0E945B16ADADBEAD98966D917D917D
:1036F0008D919C919B9720E030E044E353E40E943D
:103700000D362BED3FE049E450E40E94CA375B01DF
:103710006C01C6010E9479389B01AC010E94CA3736
:103720009B01AC01CA01F8012081318142815381A2
:103730000E94CA379B01AC0160E070E080E89FE323
:103740000E9479350E9483389B01AC012596AEAD6D
:10375000BFAD25976D917D918D919C910E940D3605
:103760002B966CAF7DAF8EAF9FAF2B97B501C60187
:103770000E940A366FAB78AF89AF9AAFEDADFEAD60
:1037800064A575A586A597A520E030E044E353E441
:103790000E940D362BED3FE049E450E40E94CA3709
:1037A0003B014C010E940A367B018C012B966CADCB
:1037B0007DAD8EAD9FAD2B97ADADBEAD56962D9127
:1037C0003D914D915C9159970E947A351B012C01D6
:1037D0002FA938AD49AD5AAD0E94CA37A80197014B
:1037E0000E94CA37EDADFEAD60AB71AB82AB93AB5F
:1037F000C601B5010E940A367B018C01C401B301E8
:103800000E9479383B014C01C201B101A801970126
:103810000E94CA37A40193010E94CA37ADADBEAD64
:10382000D4966D937D938D939C93D7972796EEAD09
:10383000FFAD2797E080F180028113812596AEAD20
:10384000BFAD25976D907D908D909C90C601B50180
:103850000E9479385B016C01C801B701A80197018A
:103860000E94CA379B01AC012B966CAD7DAD8EAD2D
:103870009FAD2B970E94CA377B018C01C401B30115
:10388000A40193010E94CA379B01AC01C801B70192
:103890000E940D36EDADFEAD26893789408D518DE4
:1038A0000E947A35A60195010E94CA37ADADBEAD22
:1038B000D8966D937D938D939C93DB978E010F5FCC
:1038C0001F4FC8016BAD7CAD0E948834C80169E10F
:1038D00071E00E943C338823C9F1EDADFEADE8599B
:1038E000FF4F86E696E8A5E1B4E481939193A19316
:1038F000B19386E696E6A3E9B2E481939193A1930E
:10390000B1938AE999E1A1EDB3E481939193A193F5
:10391000B19387E199EDAEE4BEEB81939193A193CE
:10392000B1938CEE91E5A8E3BDEB81939193A193C4
:10393000B19388EB9EE1ADE1B0E481939193A193C3
:10394000B19386E696E6A6EDB0E444C0C80163E311
:1039500071E00E943C33882309F444C08DAD9EADD4
:1039600088599F4F9EAF8DAF8DED94E5A0E1B4ECEB
:10397000EDADFEAD81939193A193B1938CE092E470
:10398000A4EBB2EC81939193A193B19382EA95EF6A
:10399000A7EEB3EC81939193A193B1938EE492E659
:1039A000A4EAB0E481939193A193B19388E09CEA57
:1039B000ACEBBFE381939193A193B19386E091E83F
:1039C000A9EAB0E481939193A193B1938FE692E138
:1039D000ABE1B0EC80839183A283B383E058F040E5
:1039E000FEAFEDAFCE0101960E949234EDADFEAD7B
:1039F000EC58FF4F60817181828193812BED3FE014
:103A000049E450E40E94CA3720E030E044E353E444
:103A10000E940D3620E030E041E655E40E940D366C
:103A20002F966CAF7DAF8EAF9FAF2F97EDADFEADF4
:103A3000E858FF4F60817181828193812BED3FE0D7
:103A400049E450E40E94CA3720E030E044E353E404
:103A50000E940D3620E030E041E655E40E940D362C
:103A600063966CAF7DAF8EAF9FAF6397EDADFEAD4C
:103A7000E458FF4F60817181828193812BED3FE09B
:103A800049E450E40E94CA3720E030E044E353E4C4
:103A90000E940D3620E030E041E655E40E940D36EC
:103AA0003B014C01EDADFEADE058FF4F60817181EF
:103AB000828193812DEB37E346E855EB0E94CA37AC
:103AC00020E030E040E85FE30E947A355B016C0162
:103AD000ADADBEADD0968D919D910D90BC91A02DB8
:103AE0008B8B9C8BAD8BBE8BADADBEADD4968D91CB
:103AF0009D910D90BC91A02D8F8B988FA98FBA8F1F
:103B000063968CAD9DADAEADBFAD6397B0588B8F56
:103B10009C8FAD8FBE8FADADBEADD8968D919D9172
:103B20000D90BC91A02D8F8F98A3A9A3BAA3D40107
:103B3000C301B0588BA39CA3ADA3BEA32F968CAD9D
:103B40009DADAEADBFAD2F97B0588FA398A7A9A7D5
:103B5000BAA7ADADBEADA859BF4FFD0181919191FE
:103B6000A191B1918BA79CA7ADA7BEA7819191917F
:103B7000A191B1918FA798ABA9ABBAAB808191818C
:103B8000A281B3818BAB9CABADABBEABE057F04039
:103B9000FEAFEDAFC401B3012F89388D498D5A8D29
:103BA0000E94CA379B01AC016B897C898D899E89F3
:103BB0000E947A357B018C016B8D7C8D8D8D9E8D65
:103BC0002F8D38A149A15AA10E94CA379B01AC018F
:103BD000C801B7010E947A35A60195010E94CA3733
:103BE0001B012C016BA57CA58DA59EA5A6019501A9
:103BF0000E94CA377B018C01C401B3012FA538A9EB
:103C000049A95AA90E94CA37A60195010E94CA373C
:103C10009B01AC01C801B7010E947A357B018C0180
:103C20006B8D7C8D8D8D9E8D2BA93CA94DA95EA998
:103C30000E94CA37A60195010E94CA379B01AC01B8
:103C4000C801B7010E947A359B01AC01C201B101E4
:103C50000E947A3567966CAF7DAF8EAF9FAF679746
:103C6000EDADFEAD64AF75AF86AF97AFE05CFF4FD3
:103C7000FEAFEDAF6BA17CA18DA19EA12B893C89EC
:103C80004D895E890E94CA372F89388D498D5A8D9A
:103C90000E947A357B018C012F966CAD7DAD8EAD87
:103CA0009FAD2F972F8D38A149A15AA10E94CA37E5
:103CB0009B01AC01C801B7010E947A35A6019501AC
:103CC0000E94CA373B014C016BA17CA18DA19EA132
:103CD0002BA53CA54DA55EA50E94CA37A60195015E
:103CE0000E94CA377B018C016FA578A989A99AA97E
:103CF000A60195010E94CA379B01AC01C801B7011A
:103D00000E947A357B018C012F966CAD7DAD8EAD16
:103D10009FAD2F972BA93CA94DA95EA90E94CA3738
:103D2000A60195010E94CA379B01AC01C801B701E9
:103D30000E947A359B01AC01C401B3010E947A351F
:103D40006B966CAF7DAF8EAF9FAF6B97ADADBEADD9
:103D50006D937D938D939D93BEAFADAF63966CAD28
:103D60007DAD8EAD9FAD63972B893C894D895E8972
:103D70000E94CA377B018C016FA178A589A59AA5FD
:103D80002F89388D498D5A8D0E94CA379B01AC010D
:103D9000C801B7010E947A352F8D38A149A15AA1D7
:103DA0000E947A35A60195010E94CA373B014C0159
:103DB00063966CAD7DAD8EAD9FAD63972BA53CA595
:103DC0004DA55EA50E94CA37A60195010E94CA377B
:103DD0007B018C016FA178A589A59AA52FA538A98B
:103DE00049A95AA90E94CA37A60195010E94CA375B
:103DF0009B01AC01C801B7010E947A357B018C019F
:103E00006BA97CA98DA99EA9A60195010E94CA371C
:103E10009B01AC01C801B7010E947A359B01AC013E
:103E2000C401B3010E947A351B012C01EDADFEAD3A
:103E30006193719381939193FEAFEDAF67966CADF3
:103E40007DAD8EAD9FAD67979B01AC010E94CA37D7
:103E50007B018C016B966CAD7DAD8EAD9FAD6B978C
:103E60009B01AC010E94CA379B01AC01C801B7019C
:103E70000E947A350E9483386F87788B898B9A8B62
:103E8000ADADBEAD6D907D908D909D90FD01819109
:103E90009191A191B191FEAFEDAF8F839887A987E2
:103EA000BA87C201B101A40193010E94CA377B0104
:103EB0008C016F85788989899A892F813885498510
:103EC0005A850E94CA379B01AC01C801B7010E9404
:103ED0000D360E94DE357B018C01ADADBEAD8D91FE
:103EE0009D910D90BC91A02D8B879C87AD87BE873F
:103EF000EDADFEADE055F040FEAFEDAFC801B7014E
:103F00000E94793820E030E040E450E40E942D38EF
:103F10005B016C01C801B7010E940A3620E030E065
:103F200040E450E40E942D387B018C01C401B301B0
:103F3000A40193010E94CA379B01AC016B857C856B
:103F40008D859E850E94CA372F81388549855A857F
:103F50000E940D36A60195010E94CA379B01AC0153
:103F6000C201B1010E947A355B016C016B857C85D1
:103F70008D859E85A40193010E94CA37A8019701EF
:103F80000E94CA379B01AC016F85788989899A891B
:103F90000E9479359B01AC01C601B5010E940D3626
:103FA0000E94DE357B018C016B966CAD7DAD8EADD4
:103FB0009FAD6B9767962CAD3DAD4EAD5FAD6797EE
:103FC0000E940D360E94DE355B016C01C801B7010D
:103FD0000E940A369B01AC016F85788989899A898C
:103FE0000E940D36ADADBEAD18966D937D938D9349
:103FF0009C931B97C801B70120E030E044E353E4F1
:104000000E94CA372BED3FE049E450E40E940D3690
:104010007B018C01EDADFEAD608371838283938360
:10402000C601B50120E030E044E353E40E94CA3702
:104030002BED3FE049E450E40E940D36ADADBEAD3E
:1040400014966D937D938D939C93179796968D916F
:104050009C9197971D969C938E931C972196EEADFD
:10406000FFAD2197E082F18202831383FD018481F9
:104070009581A681B7812396EEADFFAD239780830E
:104080009183A283B383C65ADF4F0FB6F894DEBF85
:104090000FBECDBFCF91DF911F910F91FF90EF9099
:1040A000DF90CF90BF90AF909F908F907F906F9058
:1040B0005F904F903F902F9008952F923F924F9294
:1040C0005F926F927F928F929F92AF92BF92CF92A8
:1040D000DF92EF92FF920F931F93DF93CF93CDB7B1
:1040E000DEB7A6970FB6F894DEBF0FBECDBF4B016B
:1040F0005C0129013A011E8F0D8FF8A2EF8EDAA222
:10410000C9A286EE93E0B501A401930182017E016C
:104110000894E11CF11CF5E0CF2ED12CCC0EDD1E55
:104120000E9451104091D2025091D3026091D4026A
:104130007091D5020091D6021091D7022091D80239
:104140003091D90286EE93E0E9E0EE2EF12CEC0EF0
:10415000FD1EBDE0CB2ED12CCC0EDD1E0E945110D9
:1041600089819A81AB81BC81898F9A8FAB8FBC8FFB
:1041700089859A85AB85BC85898B9A8BAB8BBC8BEB
:10418000698D7A8D8B8D9C8D29893A894B895C89C3
:104190000E9479351B012C018D819E81AF81B885EC
:1041A0008D8B9E8BAF8BB88F6D847E848F84988827
:1041B000BC01CD01A40193010E9479356BA37CA3BE
:1041C0008DA39EA3C201B101A20191010E94CA3731
:1041D0007B018C016BA17CA18DA19EA19B01AC01F7
:1041E0000E94CA379B01AC01C801B7010E947A3511
:1041F0000E9483385B016C0120E030E040E251E432
:104200000E94BF371816BCF5AD8DBE8DBD01882745
:1042100077FD8095982F0E94A8367B018C01C20102
:10422000B101A60195010E940D36A80197010E94D7
:10423000CA379B01AC01698D7A8D8B8D9C8D0E9454
:104240007935698B7A8B8B8B9C8B6BA17CA18DA133
:104250009EA1A60195010E940D36A80197010E941A
:10426000CA379B01AC016D897E898F89988D0E9428
:1042700079353B014C018EE694E0B401A301098934
:104280001A892B893C89EF8CF8A0C9A0DAA00E947A
:10429000B61AA6960FB6F894DEBF0FBECDBFCF916B
:1042A000DF911F910F91FF90EF90DF90CF90BF9023
:1042B000AF909F908F907F906F905F904F903F90C6
:1042C0002F9008956F927F928F929F92AF92BF929C
:1042D000CF92DF92EF92FF920F931F93DF93CF93D2
:1042E000CDB7DEB728970FB6F894DEBF0FBECDBFAF
:1042F000B7E3AB2EB3E0BB2EC5010E94032A7B01BE
:104300008C01C5010E943A2A9B01AC01C801B7018A
:104310000AE010E07E010894E11CF11CA5E0CA2E21
:10432000D12CCC0EDD1E0E945D20C5010E94032A07
:104330007B018C01C5010E943A2A2DB73EB72C5053
:1043400030400FB6F8943EBF0FBE2DBFCDB6DEB6DF
:104350000894C11CD11CEDB7FEB7E182F282038341
:104360001483F60164837583868397836091820149
:1043700070918301882777FD8095982F0E94A83639
:10438000F601608771878287938789EC90E040E02F
:1043900050E060E470E400E010E020E83FE36801F2
:1043A00079010F2EF0E08F2EF0E09F2EF0E0AF2E7F
:1043B000F0E0BF2EF02D0E9456072DB73EB7245FC8
:1043C0003F4F0FB6F8943EBF0FBE2DBFA980BA80F5
:1043D000CB80DC806D807E808F80988460918201AC
:1043E00070918301882777FD8095982F0E94A836C9
:1043F0007B018C01C601B501A40193010E946706EF
:1044000028960FB6F894DEBF0FBECDBFCF91DF91D7
:104410001F910F91FF90EF90DF90CF90BF90AF90E2
:104420009F908F907F906F9008956F927F928F9260
:104430009F92AF92BF92CF92DF92EF92FF920F9333
:104440001F9382E00E947831892B09F0A5C087E094
:104450000E947831892B09F09FC0A090D202B090C1
:10446000D302C090D402D090D5026090D602709052
:10447000D7028090D8029090D90260918201709109
:104480008301882777FD8095982F0E94A8367B01AD
:104490008C01C601B501A40193010E94670684E363
:1044A00093E06AE872E044E020E00E941B2F68EE8F
:1044B00073E080E090E00E944730F9CF82E00E94F4
:1044C0007831892B79F48091820190918301019652
:1044D000909383018093820168EC70E080E090E02B
:1044E0000E94473087E00E947831892B79F48091CF
:1044F00082019091830101979093830180938201BF
:1045000068EC70E080E090E00E9447300E94393013
:104510009B01AC016093FA047093FB048093FC044C
:104520009093FD048091FE049091FF04A0910005FA
:10453000B091010569017A01C81AD90AEA0AFB0A91
:10454000D701C6018C529140A040B04030F1209379
:10455000FE043093FF0440930005509301058091C1
:104560000205882331F01092020584E393E06FE0A6
:1045700005C01093020584E393E060E00E948B2E57
:10458000609182017091830184E393E041E024E033
:1045900000E00E945F2F01C011E084E00E947831AA
:1045A000892B09F48BCF84E393E06FE00E948B2E7C
:1045B0001092A0038091A5039091A603A091A70358
:1045C000B091A8030597A105B10558F06091E403E7
:1045D0007091E50384E393E041E024E000E00E9471
:1045E0005F2F0E94290B09C088E193E00E94F32706
:1045F000682F87E393E00E94162E88E193E00E94E3
:1046000014281816190684F30E9439309B01AC0156
:104610006093F2047093F3048093F4049093F50490
:104620008091F6049091F704A091F804B091F904F8
:1046300069017A01C81AD90AEA0AFB0AD701C60138
:104640008C5D9540A040B04028F12093F604309353
:10465000F7044093F8045093F9041092A00360917A
:10466000A5037091A6038091A7039091A8036530DC
:1046700071058105910518F00E9462210BC010920E
:10468000A00368517C4F84E393E041E024E000E024
:104690000E945F2F1F910F91FF90EF90DF90CF90BE
:1046A000BF90AF909F908F907F906F9008958BEF09
:1046B00092E040E051EE60E070E00E94912388E1DA
:1046C00093E040E855E260E070E00E94F826109226
:1046D000FA020E9439306093F6027093F7028093D9
:1046E000F8029093F9020E9403078DE061E00E94B6
:1046F000E53084E062E00E94E53082E062E00E9402
:10470000E53087E062E00E94E5306CE271E080E035
:1047100090E00E94473084E00E947831892BD9F7DD
:1047200008950F931F93DC01ED91FC910288F389AA
:10473000E02D20E030E000E010E009951F910F919E
:1047400008958F92AF92CF92EF92FF920F931F93A3
:10475000DF93CF93CDB7DEB7FC011382128288EED0
:1047600093E0A0E0B0E084839583A683B78382E9D9
:1047700092E0918380835587448737872687118B02
:10478000008BF38AE28AC48AA58A868A70E0CB010C
:1047900023E0880F991F2A95E1F79C0121583A4F91
:1047A000308F278B89579A4F928F818F81E090E0CD
:1047B00002C0880F991F6A95E2F720918F05282B78
:1047C00020938F05CF0140E051EE60E070E00E9441
:1047D0009123CF91DF911F910F91FF90EF90CF9098
:1047E000AF908F900895FC01838D882319F42FEFEB
:1047F0003FEF0DC00788F08DE02D2081318182814F
:104800009381281B390B8481958128233923C90181
:104810000895FC01838D882319F42FEF3FEF11C019
:10482000018CF28DE02D2081318182819381281BC2
:10483000390B2095309584819581282339232F5F6A
:104840003F4FC9010895FC01838D882361F0A7893A
:10485000B08D2D913C91119712968D919C9113974B
:104860002817390721F44FEF5FEFCA010895129618
:104870008D919C9113971696ED91FC911797E80FE7
:10488000F91F408112968D919C9113970196149671
:104890002D913C9115978223932313969C938E938D
:1048A000129750E0E2CFFC01838D882351F00788F6
:1048B000F08DE02D20813181828193812817390785
:1048C00021F42FEF3FEFC901089582819381068083
:1048D000F781E02DE80FF91F8081282F30E0F3CF1A
:1048E000DC015796ED91FC915897828193819183D9
:1048F00080835996ED91FC915A97808191819383A1
:1049000082830895DC015B968C915B978823A9F1E3
:104910005996ED91FC915A97208131812F5F3F4F3D
:1049200084819581282339235C968C915C97882318
:1049300029F08281938128173907F9F082819381C8
:1049400028173907D9F3808191810680F781E02DFE
:10495000E80FF91F60835996ED91FC915A973183C6
:1049600020835296ED91FC915397808156969C91AD
:10497000892B808321E030E002C020E030E0C901D3
:104980000895CF93DF93EC011B821A828A819B8169
:10499000998388831D821C828E819F81009721F0DC
:1049A0000E9468321F821E82DF91CF9108950F937B
:1049B0001F938C01DC015296ED91FC91539720815D
:1049C00056968C91569755969C915597892B809524
:1049D0008223808357968D919C9158970E94C12481
:1049E000F801818D928D0E94C124D8015B961C92A2
:1049F0001F910F9108950F931F93CF93DF938C0115
:104A0000FC0113821282828193819183808341E031
:104A1000A1E0B0E001C04F5FFD01042E02C0EE0F27
:104A2000FF1F0A94E2F79B0182E06130780710F0E3
:104A300020E032E0E217F30770F3C1E0D0E002C0FB
:104A4000CC0FDD1F4A95E2F72197F80126813781C7
:104A50002115310541F0848195818C179D0789F0DE
:104A6000C9010E946832F801D583C483CE01019642
:104A70000E94CB319C01F8019783868380E0232B31
:104A800009F081E0DF91CF911F910F910895AF92CE
:104A9000BF92CF92DF92EF92FF920F931F93CF932B
:104AA000DF937C015A016B01E901DC015B968C917B
:104AB0005B978823F1F02115310539F45796ED9174
:104AC000FC915897C481D58121960115110549F4AF
:104AD000D7015996ED91FC915A97048115810F5F8A
:104AE0001F4FD701ED91FC910088F189E02DC7019E
:104AF0000995F7018789908D209711F4C0E8D0E0DF
:104B0000BE010E94FB24882381F0D70159968D9124
:104B10009C915A970115110511F400E110E0B801BC
:104B20000E94FB24882309F04DC0D701ED91FC9130
:104B30000088F189E02DC701099567C0D70150961B
:104B4000ED91FC915197B0E0AB16B1EEBB06B0E031
:104B5000CB06B0E0DB0609F454C081E090E0D70159
:104B600054960C9002C0880F991F0A94E2F7808334
:104B700060E079E08DE390E0A60195010E944B3A58
:104B80002150304040405040CA01B90122E030E09D
:104B900040E050E00E944B3AD7011C96ED91FC9109
:104BA0001D9730831E96ED91FC911F972083D701AE
:104BB0005296ED91FC915397808155969C91892B4B
:104BC000808323C0D7015996ED91FC915A971382A7
:104BD000128282819381918380835796ED91FC911B
:104BE000589713821282828193819183808381E01E
:104BF0005B968C931A141B041C041D040CF49ECFAA
:104C0000D6CF108220E130E0C7CFDF91CF911F9146
:104C10000F91FF90EF90DF90CF90BF90AF900895ED
:104C20000F931F93CF93DF93FC01738D7695717073
:104C3000A685B7859585772329F08C91892309F47A
:104C400054C004C08C91892309F04FC08389948992
:104C500020E001972FEF8F3F9207D9F7C589D689BA
:104C6000A685B785158560E031E040E050E000E0C2
:104C7000CE01202F01972FEF8F3F9207D9F78C910C
:104C8000812311F0632B03C0832F80956823330F9A
:104C90004F5F5F4F4830510559F78789908D20E06D
:104CA00001972FEF8F3F9207D9F77111609580918F
:104CB000D2052091D30590E001968F73907030E07B
:104CC0008217930779F0E091D205F0E0EE56FA4FA3
:104CD00060838091D20590E001968F7390708093ED
:104CE000D20503C0838D8160838FDF91CF911F91A7
:104CF0000F9108951F920F920FB60F9211242F93C8
:104D00003F934F935F936F937F938F939F93AF9353
:104D1000BF93EF93FF938091900590919105009739
:104D200011F00E941026FF91EF91BF91AF919F91DA
:104D30008F917F916F915F914F913F912F910F9044
:104D40000FBE0F901F9018951F920F920FB60F92E3
:104D500011242F933F934F935F936F937F938F9380
:104D60009F93AF93BF93EF93FF93809190059091A2
:104D70009105009711F00E941026FF91EF91BF91CD
:104D8000AF919F918F917F916F915F914F913F91E3
:104D90002F910F900FBE0F901F9018951F920F929A
:104DA0000FB60F9211242F933F934F935F936F93FE
:104DB0007F938F939F93AF93BF93EF93FF938091D4
:104DC000900590919105009711F00E941026FF9197
:104DD000EF91BF91AF919F918F917F916F915F9173
:104DE0004F913F912F910F900FBE0F901F901895EC
:104DF000CF92DF92EF92FF920F931F93CF93DF93A7
:104E0000EC017A018B011A8E198E188E1F8A1E8A68
:104E10001D8A1C8A1B8A20E030E06901CC0CDD1C55
:104E2000C20ED31EB601660F771F660F771FAB0148
:104E30004C555D4FFA0185919591A591B4918E15D0
:104E40009F05A007B107E9F4FB01E855FD4F8591E7
:104E500094919C8B8B8BFB01E655FD4F8591949132
:104E60009E8B8D8BFB01E455FD4F85919491988F1E
:104E70008F8BFB01E255FD4F859194919A8F898F1D
:104E800006C02F5F3F4F2D30310509F0C6CF8F8907
:104E9000988D892B09F449C04C85463108F03DC0F6
:104EA00090916800483010F484E005C04E3010F056
:104EB00082E001C081E0892B80936800483028F4AB
:104EC000EDE6F0E0ADE6B0E00BC04E3028F0ECE6E9
:104ED000F0E0ACE6B0E004C0EBE6F0E0ABE6B0E05A
:104EE0005081483040F481E090E002C0880F991F63
:104EF0004A95E2F710C0242F30E04E3018F42850C5
:104F0000304002C02E50304081E090E002C0880F57
:104F1000991F2A95E2F7852B8C93898D9A8D20E035
:104F200001972FEF8F3F9207D9F7809190059091CD
:104F300091058C179D0781F08B8D8E7F8B8F9FB78E
:104F4000F8941092D2058091D2058093D305D09326
:104F50009105C09390059FBFDF91CF911F910F9155
:104F6000FF90EF90DF90CF900895FC01448546318B
:104F700080F5483028F4EDE6F0E0ADE6B0E00BC097
:104F80004E3028F4EBE6F0E0ABE6B0E004C0ECE62F
:104F9000F0E0ACE6B0E05081483040F481E090E0D1
:104FA00002C0880F991F4A95E2F710C0242F30E005
:104FB0004E3018F42850304002C02E50304081E06E
:104FC00090E002C0880F991F2A95E2F7809585230B
:104FD0008C930895FC018AEA92E091838083CF014B
:104FE0000E94B527089520919005309191052817CA
:104FF000390731F49091D3058091D205981719F4AF
:105000002FEF3FEF0FC0E091D305F0E0EE56FA4FDF
:1050100020818091D30590E001968F7390708093EA
:10502000D30530E0C9010895209190053091910594
:105030002817390719F020E030E00EC08091D20522
:105040002091D30590E0805C9F4F821B910960E422
:1050500070E00E94163A9C01C90108950F931F93B6
:10506000DC0159968D919C915A97892B49F481E0E6
:1050700090E013969C938E93129720E030E097C0B7
:105080000FB7F8945B968C915B975196ED91FC91DC
:10509000529750962C91509781FF8DC08081822B22
:1050A000808359968D919C915A97059620E001979F
:1050B0002FEF8F3F9207D9F75B968C915B9781FF1B
:1050C00035C031E040E050E070E010E0832F90E028
:1050D000862397235196ED91FC91529750962C91EF
:1050E0005097892B29F0808120952823208303C0A5
:1050F0008081822B808359968D919C915A97212F84
:1051000001972FEF8F3F9207D9F7330F4F5F5F4F14
:1051100048305105D9F65196ED91FC915297908106
:1051200050968C9150978095892333C031E040E0B0
:1051300050E070E010E0832F90E086239723519693
:10514000ED91FC91529750962C915097892B21F01C
:105150008081822B808304C0808120952823208336
:1051600059968D919C915A97212F01972FEF8F3F40
:105170009207D9F7330F4F5F5F4F48305105D9F68B
:105180005196ED91FC915297808150969C91509749
:10519000892B80830FBF59968D919C915A9720E05F
:1051A00001972FEF8F3F9207D9F721E030E0C90137
:1051B0001F910F910895808120952823208371CF1E
:1051C00020919005309191052817390749F49FB730
:1051D000F8941092D2058091D2058093D3059FBF99
:1051E000089520919005309191052817390731F4E1
:1051F0009091D3058091D205981719F42FEF3FEFC6
:105200000AC0E091D305F0E0EE56FA4F8081282FD6
:10521000332727FD3095C90108951F93CF93DF935E
:10522000EC01162F862F60E00E94E5308B8D81FD0A
:1052300004C0812F61E00E9424311C87212F30E0BF
:10524000C9018E589C4FFC0184918D87225A3C4F96
:10525000F9016491E62FF0E0EE0FFF1FEC5AFC4FCE
:10526000859194919F878E87DF91CF911F910895AB
:105270001F93CF93DF93EC01162F862F61E00E94DE
:10528000E53060E08B8D81FF61E0812F0E94243149
:10529000212F30E0C9018E589C4FFC018491888BEE
:1052A000225A3C4FF9016491E62FF0E0EE0FFF1F08
:1052B000E65BFC4F859194919A8B898BDF91CF911E
:1052C0001F910895FF920F931F938C01F62EFC01FE
:1052D0001382128288EE93E0A0E0B0E0848395838D
:1052E000A683B7838AEA92E091838083148A138A23
:1052F000168A158A108E178A128E118E838D217050
:10530000220F8C7F822B838FC801642F0E94382943
:10531000C8016F2D0E940D291F910F91FF900895D4
:10532000FC0110821182138212821482158216826D
:1053300017821086128611861386148615861686A5
:105340001786118A108A128A138A148A158A168A75
:10535000108E178A118E128E138E148E158E12A235
:1053600013A214A215A216A217A210AA11AA12AA79
:1053700013AA14AA15AA16AE17AEEC5BFF4F108243
:105380001182128213823896119210823596108201
:1053900011821282138238961192108235961082F1
:1053A00011821282138238961192108235961082E1
:1053B00011821282138238961192108235961082D1
:1053C000118212821382389611921082709682E0B6
:1053D0008193119211921192119211921192119244
:1053E00011921192119211921192119211921192A5
:1053F00011921192119211921082118212821382D3
:10540000B39710820895CF92DF92EF92FF920F939D
:105410001F938C01FC0111826281738180E090E016
:105420000E94A6366B017C01F8016481758186813A
:1054300097810E94A63628E23BE64EE65EE40E9493
:105440000D369B01AC01C701B6010E947A356B0194
:105450007C01F8018085882321F0F7FAF094F7F8B1
:10546000F094B601C7011F910F91FF90EF90DF906C
:10547000CF900895CF92DF92EF92FF920F931F93F8
:105480008C01FC0111826185728580E090E00E94B0
:10549000A6366B017C01F801638574858585968548
:1054A0000E94A63628E23BE64EE65EE40E940D36F8
:1054B0009B01AC01C701B6010E947A356B017C01EA
:1054C000F8018785882321F0F7FAF094F7F8F09433
:1054D000B601C7011F910F91FF90EF90DF90CF9021
:1054E000089540E150E00E94500308950F931F93E8
:1054F0008C014096B8010E9449030E943930F8019E
:1055000060A371A382A393A381E085A384A31F91C9
:105510000F9108950F931F938C01FC018285938551
:10552000A485B58586839783A087B1870E9439308B
:10553000F801628373838483958381E08183808310
:105540001F910F9108950F931F938C01FC01828589
:105550009385A485B58586839783A087B1870E94AC
:105560003930F801628373838483958381E081837A
:1055700080831F910F9108950F931F938C01FC015D
:1055800086819781A085B18582839383A483B58327
:105590000E943930F801628773878487958781E09C
:1055A000818380831F910F9108950F931F938C0126
:1055B000FC0186819781A085B18582839383A48332
:1055C000B5830E943930F801628773878487958795
:1055D00081E0818380831F910F910895CF93DF93A2
:1055E000EC01DC011296FC01709687E001900D92AF
:1055F0008150E1F7DE011996FE01779687E0019070
:105600000D928150E1F70E9439306E8F7F8F88A311
:1056100099A381E089838883DF91CF9108956F9268
:105620007F928F929F92AF92BF92CF92DF92EF9232
:10563000FF920F931F93CF93DF934C013B010E9486
:105640001003162F072FF82EE92E24E630E040E055
:1056500050E00E94293A80E090E020E836E948E9ED
:1056600050E00E94F7395B016C01612F702F8F2D84
:105670009E2D24E630E040E050E00E94293AF301FC
:105680003183208303C00894811C911CF401208184
:10569000822F992787FD9095C0970A97A0F32E3205
:1056A00071F530E8E32E36E9F32E38E9032F112D9A
:1056B00019C0C801B7012AE030E040E050E00E9484
:1056C000293AC901DA017C018D019E01442737FD89
:1056D0004095542FC801B7010E94F739A60EB71E96
:1056E000C81ED91E0894811C911CF4018081C82F0A
:1056F000DD27C7FDD095E097CA30D105D0F2C601AD
:10570000B50122E0660F771F881F991F2A95D1F7F0
:105710006A0D7B1D8C1D9D1D6F5F7F4F8F4F9F4FAF
:1057200023E030E040E050E00E94293AF301228378
:105730003383448355831682DF91CF911F910F915C
:10574000FF90EF90DF90CF90BF90AF909F908F90A1
:105750007F906F9008951F93CF93DF93EC0110E03B
:1057600088818D3211F411E02196CE010E94100340
:1057700024E630E040E050E00E94F7399B01AC01A4
:1057800001C021966881862F992787FD9095C09743
:105790000A97B8F36E3249F56981862F992787FDFC
:1057A0009095C0970A9708F58AE06802C001112415
:1057B000805E9140AA2797FDA095BA2F280F391F28
:1057C0004A1F5B1F8A81682F772767FD709560539A
:1057D00070406A30710548F4CB01AA2797FDA09567
:1057E000BA2F280F391F4A1F5B1F112339F050951C
:1057F0004095309521953F4F4F4F5F4FB901CA01FA
:10580000DF91CF911F910895AF92BF92CF92DF9217
:10581000EF92FF920F931F93CF93DF93EC01CB573F
:10582000DF4F8881C558D040882309F4D3C0CA57B8
:10583000DF4F9881C658D040892F8154863038F484
:10584000292F332727FD3095275330400CC0292FAF
:10585000332727FD30959156963018F42755304060
:1058600002C020533040C957DF4F4881C758D0404D
:10587000842F8154863030F4842F992787FD9095AA
:10588000C7970BC0842F992787FD909541564630C6
:1058900018F48755904001C0C097E4E0220F331FF1
:1058A000EA95E1F7982F920FCC57DF4F8881C458C3
:1058B000D040981709F07FC0FE01E755FF4F808167
:1058C0009181A281B3810196A11DB11D8083918335
:1058D000A283B383C856DF4F8881C859D04088233C
:1058E00071F0FE01EF55FF4F80819181A281B3815C
:1058F0000196A11DB11D80839183A283B383CB56F2
:10590000DF4F8881C559D0408823E1F08130B9F557
:10591000CE0182960E94D52ACE01C0960E94BC2A52
:10592000C856DF4F8881C859D040882341F1CE0145
:105930000E94EE2ACE01CE960E94A32ACE01845B5D
:105940009F4F1BC0CE01C0960E94BC2AC856DF4F95
:105950008881C859D040882341F0CE010E94EE2AA8
:10596000CE01865A9F4F0E94A32ACE0188599F4F8D
:105970000E948A2ACE018A589F4F0E94A32AFE01C4
:10598000E556FF4FC081D1818F0106C0CE010E9434
:10599000762A0AA4DBA5C02D209709F430C1D801CE
:1059A000ED91FC9166A177A18EA19FA10E94400379
:1059B000009761F324C1FE01EB55FF4F8081918177
:1059C000A281B3810196A11DB11D80839183A28321
:1059D000B38317C1CA56DF4F8881C659D040882388
:1059E00009F047C076E8C72ED12CCC0EDD1EC601CB
:1059F0006EE371E00E944003009739F4CB56DF4F0D
:105A000081E08883C559D0400EC0C60164E471E0CE
:105A10000E944003FE01EB56FF4F009711F41082E5
:105A200002C082E080836BE9E62EF12CEC0EFD1EB5
:105A3000C756DF4F88819981F70191838083570191
:105A400005C08AA59BA5D5018D939C93F501C081C6
:105A5000D181209709F4D5C00EA11FA1C801B601BC
:105A60000E94400397FDEDCFD8C0D7011D921C9234
:105A7000C8C0CB56DF4F3881C559D040323009F409
:105A80008CC0DE01AA57BF4F2C91222309F485C098
:105A9000E32FF0E055E0EE0FFF1F5A95E1F790E09D
:105AA000E82BF92B3197E932F10508F076C0EC5C70
:105AB000FF4FCD01EE0FFF1F0590F491E02D0994EB
:105AC0000E94AB2B6EAB7FAB88AF99AF66C0FE0177
:105AD000E856FF4F1082213409F05FC03BC0BE0181
