:1000000002C100002DC100002BC1000029C1000069
:1000100027C1000025C1000023C1000021C100004C
:100020001FC100001DC100001BC1000019C100005C
:1000300017C1000015C1000013C1000011C100006C
:100040000FC100000DC100000BC1000009C100007C
:1000500007C1000005C1000003C100000C94F20DAF
:10006000FFC0000004C2000042C20000F9C000004E
:10007000F7C00000F5C00000F3C00000F1C00000B0
:10008000EFC00000EDC00000EBC00000E9C00000C0
:100090005CC100009AC10000E3C00000E1C00000A4
:1000A000DFC00000DDC00000DBC00000D9C00000E0
:1000B000D7C00000D5C00000D3C00000D1C00000F0
:1000C000CFC00000CDC00000CBC00000C9C0000000
:1000D000C7C00000C5C00000C3C00000C1C0000010
:1000E000BFC0000000002100240027002A002D00CE
:1000F0003000330001010000040107010A01000083
:100100002200250028002B002E00310034000201BF
:100110000000050108010B0100002000230026005B
:1001200029002C002F00320000010000030106010D
:10013000090105050505070508080808020202026D
:100140000A0A080804040404010101010101010173
:100150000303030303030303040707070C0C0C0C3E
:100160000C0C0C0C02020202060606060606060627
:100170000B0B0B0B0B0B0B0B0102102020080810B4
:100180002040102040800201020108040201010207
:1001900004081020408080402010080402018004E0
:1001A000020180402010080402010804020101023B
:1001B0000408102040800102040810204080000044
:1001C000090A02080B0C0D070603040100000000D9
:1001D000000000000000000000000000000000001F
:1001E0000000000000000000000011100F000000DF
:1001F00000000000000000000000000000000000FF
:1002000000000000C90211241FBECFEFD1E2DEBF03
:10021000CDBF00E00CBF13E0A0E0B2E0EEE7F4E2F7
:1002200000E00BBF02C007900D92AA35B107D9F7C5
:100230001BBE14E0AAE5B3E001C01D92A338B107CC
:10024000E1F712E0C6E0D2E004C02297FE010E946E
:100250003912C430D107C9F70E9478100C943D12AE
:10026000CFCEFB01DC0102C001900D924150504005
:10027000D8F70895FF920F931F93CF93DF93EC016C
:10028000F02E8EEF8A832B836D834E838091C00383
:100290008C838F5F8093C003022F10E0F8013596A6
:1002A000DE0113966FEF7FEF2D912627822F829527
:1002B000807F822790E0382F2227AC01440F551F02
:1002C000440F551F440F551F24273527672F7727C5
:1002D0006227732724E0959587952A95E1F768278B
:1002E0007927319709F72F2D2627822F8295807F36
:1002F000822790E0382F2227AC01E3E0440F551FFE
:10030000EA95E1F724273527472F55272427352756
:1003100044E0959587954A95E1F728273927DE012E
:1003200018968B81FD01E80FF11D20838B81A80FAA
:10033000B11D11963C939801285F3F4FC901DF9191
:10034000CF911F910F91FF9008951F920F920FB6BA
:100350000F920BB60F9211242F933F934F938F93CD
:100360009F93EF93FF934091CE0020913D043091F5
:100370003E042F5F3F4F8091410490914204282317
:10038000392380913F04909140042817390779F070
:1003900080913D0490913E04E0914304F091440427
:1003A000E80FF91F408330933E0420933D04FF91F2
:1003B000EF919F918F914F913F912F910F900BBE95
:1003C0000F900FBE0F901F9018951F920F920FB6AF
:1003D0000F920BB60F9211242F933F938F939F93FD
:1003E000EF93FF9320915F043091600480915D044E
:1003F00090915E0428173907E9F080915F0490918D
:100400006004E0916304F0916404E80FF91F8081B7
:100410008093CE0080915F049091600401962091BA
:10042000610430916204822393239093600480934B
:100430005F0410C020915D0430915E0480915F04E0
:10044000909160042817390729F48091C9008F7DA5
:100450008093C900FF91EF919F918F913F912F91D0
:100460000F900BBE0F900FBE0F901F9018951F920C
:100470000F920FB60F920BB60F9211242F933F934A
:100480004F938F939F93EF93FF934091C6002091DA
:100490003504309136042F5F3F4F8091390490919D
:1004A0003A0428233923809137049091380428177F
:1004B000390779F08091350490913604E0913B043E
:1004C000F0913C04E80FF91F4083309336042093E9
:1004D0003504FF91EF919F918F914F913F912F9113
:1004E0000F900BBE0F900FBE0F901F9018951F928C
:1004F0000F920FB60F920BB60F9211242F933F93CA
:100500008F939F93EF93FF9320915704309158045A
:10051000809155049091560428173907E9F080918D
:10052000570490915804E0915B04F0915C04E80F4B
:10053000F91F80818093C6008091570490915804E0
:1005400001962091590430915A0482239323909369
:1005500058048093570410C02091550430915604DC
:1005600080915704909158042817390729F48091F5
:10057000C1008F7D8093C100FF91EF919F918F917A
:100580003F912F910F900BBE0F900FBE0F901F90B9
:1005900018958F92AF92CF92EF92FF920F931F9385
:1005A0008FE793E061E04DEC50E02CEC30E008EC9C
:1005B00010E0A9ECEA2EF12CCC24C394F8E9AF2E7C
:1005C000E0E28E2E0E948D0B8CE993E060E045EC1A
:1005D00050E024EC30E000EC10E071ECE72EF12C60
:1005E0000E948D0B1F910F91FF90EF90CF90AF90D5
:1005F0008F9008958F929F92AF92BF92CF92EF9279
:10060000FF920F93DF93CF93CDB7DEB7A1970FB6CD
:10061000F894DEBF0FBECDBF382F762F89829A8225
:10062000AB82BC828FA598A9A9A9BAA98D839E8304
:10063000AF83B8878BA99CA9ADA9BEA989879A87E2
:10064000AB87BC878FA998ADA9ADBAAD8D879E87C2
:10065000AF87B88B8BAD9CADADADBEAD898B9A8BA2
:10066000AB8BBC8B23968CAD9DADAEADBFAD239750
:100670008D8B9E8BAF8BB88F27968CAD9DADAEAD1D
:10068000BFAD2797898F9A8FAB8FBC8FFE8EED8E73
:100690002F8F08A3C9A2DA011896FE01319681E2D4
:1006A00001900D928150E1F78CE4FA018783CA0131
:1006B000632F472F21E208E9DDDDA1960FB6F894FC
:1006C000DEBF0FBECDBFCF91DF910F91FF90EF90B6
:1006D000CF90BF90AF909F908F9008950F931F93EE
:1006E0008B01FB01238130E0285F3F4FAB014E5F60
:1006F0005F4FBA01A901B5DDF801238130E0285F21
:100700003F4FC9011F910F910895EF92FF920F93F0
:100710001F93DF93CF93CDB7DEB7C15ED0400FB646
:10072000F894DEBF0FBECDBF609137024091380212
:100730002091360230915A0381E090E09A838983B8
:100740002B833C8332E7E32EF12CEC0EFD1E8981D6
:100750009A81AB81BC81F70180879187A287B3879B
:1007600089E28783C70124E00CE184DD8E010B5F01
:100770001F4FC801B701B2DFAC018CE993E0B801AB
:100780000E948510CF51DF4F0FB6F894DEBF0FBE29
:10079000CDBFCF91DF911F910F91FF90EF90089502
:1007A000EF92FF920F931F93DF93CF93CDB7DEB7F6
:1007B000C250D1400FB6F894DEBF0FBECDBF10912E
:1007C0003702009138026091360270915A0320E09E
:1007D00030E040E050E029833A834B835C8380E043
:1007E00090E0A0EAB0E48D839E83AF83B887298729
:1007F0003A874B875C872D873E874F87588B8BE7DF
:1008000094E1A2E1B1E4898B9A8BAB8BBC8B8D8B8D
:100810009E8BAF8BB88F80E090E0A8ECB2E4898F1C
:100820009A8FAB8FBC8F81E090E09E8F8D8F80E19F
:1008300090E098A38F8F69A37AA31BA21CA281E0EA
:100840008DA3DE01A556BF4FFE01319685E20190D2
:100850000D928150E1F743E9E42EF12CEC0EFD1EE0
:1008600087E2F7018783C701612F402F25E20EEF52
:1008700001DD8E010A5D1F4FC801B7012FDFAC01FA
:100880008CE993E0B8010E948510CE5FDE4F0FB671
:10089000F894DEBF0FBECDBFCF91DF911F910F91B6
:1008A000FF90EF900895EF92FF920F931F93DF93C5
:1008B000CF93CDB7DEB7C15ED0400FB6F894DEBFA0
:1008C0000FBECDBF609137024091380220913602B1
:1008D00030915A0381E090E09A8389832B833C8393
:1008E00072E7E72EF12CEC0EFD1E89819A81AB8117
:1008F000BC81F70180879187A287B38788E28783CD
:10090000C70124E006EEB6DC8E010B5F1F4FC80165
:10091000B701E4DEAC018CE993E0B8010E948510D8
:10092000CF51DF4F0FB6F894DEBF0FBECDBFCF91D2
:10093000DF911F910F91FF90EF900895EF92FF923A
:100940000F931F93DF93CF93CDB7DEB7CF5DD0402A
:100950000FB6F894DEBF0FBECDBF60913702409155
:10096000380290915A038091360289839A83F0E786
:10097000EF2EF12CEC0EFD1E89819A81F7019187F3
:1009800080878DE28783C70122E008EE73DC8E0149
:100990000D5F1F4FC801B701A1DEAC018CE993E0E8
:1009A000B8010E948510C152DF4F0FB6F894DEBF28
:1009B0000FBECDBFCF91DF911F910F91FF90EF90B0
:1009C00008952F923F924F925F926F927F928F92F3
:1009D0009F92AF92BF92CF92DF92EF92FF920F93CE
:1009E0001F93DF93CF93CDB7DEB7CF5ED0400FB666
:1009F000F894DEBF0FBECDBF39014A012090370207
:100A0000309038025090360240905A030E9486116E
:100A10007A836983C401B3010E9486117C836B834E
:100A2000C801B7010E9486117E836D83C601B5019E
:100A30000E94861178876F83CB5FDE4F6881798152
:100A40008A819B81C550D1400E9486117A8769872F
:100A5000C75FDE4F688179818A819B81C950D1400F
:100A60000E9486117C876B87C35FDE4F6881798126
:100A70008A819B81CD50D1400E9486117E876D87EF
:100A8000CF5EDE4F688179818A819B81C151D140DF
:100A90000E948611788B6F87598A4A8ADE01A8578F
:100AA000BF4FFE01319682E101900D928150E1F736
:100AB000A0E8EA2EF12CEC0EFD1E86E4F7018783F8
:100AC000C701622D432D22E10CE7D4DB8E010D5EC0
:100AD0001F4FC801B70102DEAC018CE993E0B801F9
:100AE0000E948510C151DF4F0FB6F894DEBF0FBED4
:100AF000CDBFCF91DF911F910F91FF90EF90DF90CD
:100B0000CF90BF90AF909F908F907F906F905F90AD
:100B10004F903F902F9008952F923F924F925F9267
:100B20006F927F928F929F92AF92BF92CF92DF92FD
:100B3000EF92FF920F931F93DF93CF93CDB7DEB762
:100B4000C55FD0400FB6F894DEBF0FBECDBFC05119
:100B5000DF4F99838883C05FD040CE50DF4F4883FA
:100B600059836A837B83C25FD04018012901609159
:100B70003702409138028091360290915A032AE060
:100B800030E03A8329833C832B833E832D8338874F
:100B90002F833A8729873C872B873E872D87388B81
:100BA0002F87898B9A8BDE01A857BF4FFE013196A4
:100BB00082E101900D928150E1F7B0E86B2E712C2B
:100BC0006C0E7D1E86E4D30117968C93C30122E13F
:100BD0000CE750DBCE50DF4F88819981AA81BB8121
:100BE000C25FD04080935E0390935F03A093600345
:100BF000B0936103209262033092630340926403D6
:100C000050926503C0926603D0926703E092680336
:100C1000F092690380926A0390926B03A0926C0336
:100C2000B0926D03C55FDE4F88819981AA81BB8137
:100C3000CB50D14080936E0390936F03A0937003C9
:100C4000B0937103C15FDE4F88819981AA81BB8116
:100C5000CF50D1408093720390937303A093740399
:100C6000B0937503CD5EDE4F88819981AA81BB81E7
:100C7000C351D1408093760390937703A093780378
:100C8000B0937903C051DF4FA881B981C05FD040D4
:100C9000B0935C03A0935B03EDB7FEB778970FB6F4
:100CA000F894FEBF0FBEEDBF3196ADB7BEB711963B
:100CB0002D923D924D925C921497C482D582E68229
:100CC000F78280869186A286B386C55FDE4F8881D3
:100CD0009981AA81BB81CB50D14084879587A68713
:100CE000B787C15FDE4F88819981AA81BB81CF50D0
:100CF000D140808B918BA28BB38BCD5EDE4F8881F0
:100D00009981AA81BB81C351D140848B958BA68BDD
:100D1000B78B8091370260913802A301209136028F
:100D200000915A03C051DF4FE880F980C05FD04086
:100D3000C0905D03CE50DF4F88809980AA80BB8031
:100D4000C25FD04057DCADB7BEB758960FB6F89427
:100D5000BEBF0FBEADBF8E010D5E1F4FC801B301F8
:100D6000BDDCAC018CE993E0B8010E948510CB504A
:100D7000DF4F0FB6F894DEBF0FBECDBFCF91DF912E
:100D80001F910F91FF90EF90DF90CF90BF90AF90A9
:100D90009F908F907F906F905F904F903F902F909B
:100DA00008958F929F92AF92BF92CF92DF92FF925F
:100DB0000F931F93CF93DF93F62E4901C82EDD24A6
:100DC0008601000F111F5801AC0CBD1CE501CC0FB2
:100DD000DD1FCC0FDD1FC754DC4F18828B819C8137
:100DE0008430910509F48EC0853091055CF4823021
:100DF000910509F443C0833091050CF0BFC09923DD
:100E0000C4F44FC28730910509F443C1883091057D
:100E100044F48530910509F4DEC0069709F041C21B
:100E200007C18830910509F47AC1099709F039C2E0
:100E3000E7C18EEF681709F034C282E090E09C832E
:100E40008B8380E790E0C89ED001C99EB00DD89EEC
:100E5000B00D1124AB53BC4F13961C92139788E32B
:100E600090E0C89EF001C99EF00DD89EF00D1124AF
:100E7000EE0FFF1FE953FC4F6083A4C1E5E6E617C0
:100E800088F489818F5F8983F501EE0FFF1FEE0FD4
:100E9000FF1FE554FC4F80818F5F8083188281E0C3
:100EA00090E02DC080E790E0C89EF001C99EF00D53
:100EB000D89EF00D1124EB53FC4F63831D8280817B
:100EC0008627282F2295207F282730E0522F44277D
:100ED000C90163E0880F991F6A95E1F748275927F0
:100EE000818190E04827592784E0359527958A9598
:100EF000E1F7422753275183408384E090E09C83AD
:100F00008B83CFC18CE190E0C89EF001C99EF00DAB
:100F1000D89EF00D1124EE0FFF1FEE0FFF1FE753B9
:100F2000FC4F608380E790E0C89EF001C99EF00D01
:100F3000D89EF00D1124EB53FC4F80818627282F7B
:100F40002295207F282730E0522F4427C901B3E0A3
:100F5000880F991FBA95E1F748275927818190E0BA
:100F600048275927A4E035952795AA95E1F7422708
:100F700053275183408383E090E0C1CF80E790E026
:100F8000C89EF001C99EF00DD89EF00D1124EB53C0
:100F9000FC4F658380818627282F2295207F282774
:100FA00030E0522F4427C90163E0880F991F6A95EA
:100FB000E1F748275927818190E04827592704E025
:100FC000359527950A95E1F74227532751834083AA
:100FD00085E090E094CF80E790E0C89EF001C99E44
:100FE000F00DD89EF00D1124EB53FC4F66838081E9
:100FF0008627282F2295207F282730E0522F44274C
:10100000C901B3E0880F991FBA95E1F7482759271E
:10101000818190E048275927A4E035952795AA9526
:10102000E1F7422753275183408386E090E067CF62
:1010300080E790E0C89EF001C99EF00DD89EF00DAB
:101040001124EB53FC4F678380818627282F22953C
:10105000207F282730E0522F4427C90163E0880F02
:10106000991F6A95E1F748275927818190E0482721
:10107000592794E0359527959A95E1F7422753270C
:10108000518340838381882309F446C087E090E040
:1010900036CF6D81F80183E0EE0FFF1F8A95E1F7EF
:1010A000E01BF10B319603E0EE0FFF1F0A95E1F70D
:1010B000E60FF11DEB53FC4FF0826F5F6D8380E70D
:1010C00090E0C89EF001C99EF00DD89EF00D11244D
:1010D000EB53FC4F80818F25282F2295207F2827D6
:1010E00030E0522F4427C901B3E0880F991FBA9509
:1010F000E1F748275927818190E048275927A4E044
:1011000035952795AA95E1F74227532751834083C8
:101110008381681709F0C5C088E090E0F0CE80E7D1
:1011200090E0C89ED001C99EB00DD89EB00D11248C
:10113000AB53BC4F9C911796EC911797F0E0EF5B87
:10114000FD4F80818927482F4295407F482750E0F6
:10115000342F2227CA0173E0880F991F7A95E1F78F
:101160002827392711968C91119790E02827392745
:1011700064E0559547956A95E1F724273527119640
:101180003C932E938F2D90E0307082179307F9F0E7
:10119000F501EE0FFF1FEE0FFF1FE554FC4F80819E
:1011A0008F5F8083188281E090E09C838B83FEEFC9
:1011B000FF1609F076C082E090E09C838B83139643
:1011C0001C9213978FEF9FEF8D939C936AC089E0D9
:1011D00090E09C838B83F80183E0EE0FFF1F8A95DC
:1011E000E1F7E01BF10B319603E0EE0FFF1F0A95CC
:1011F000E1F78D81E80FF11DEB53FC4FF08251C0F8
:10120000262F30E080E790E0C89EB001C99E700DA7
:10121000D89E700D11246B537C4FFB01818190E0AF
:1012200028173907E9F0F501EE0FFF1FEE0FFF1F3A
:10123000E554FC4F80818F5F8083188281E090E0CD
:101240009C838B83FEEFFF1661F582E090E09C8328
:101250008B83EB011B828FEF9FEF9983888321C0E3
:1012600081E0888381E090E09C838B83F801B3E088
:10127000EE0FFF1FBA95E1F7E01BF10B3196A3E0EB
:10128000EE0FFF1FAA95E1F78D81E80FF11DEA53DC
:10129000FC4FF082DA01FB0180E701900D92815052
:1012A000E1F7D601AA0FBB1FAC0DBD1DAA0FBB1FD6
:1012B000AA0FBB1FA754BC4F8C91813069F58CE1FC
:1012C00090E0C89EF001C99EF00DD89EF00D11244B
:1012D000EE0FFF1FEE0FFF1FE753FC4F80811696A6
:1012E0008C93169718968D919C911997892B21F4C0
:1012F0001B961C921E921A97F601EE0FFF1FEC0D23
:10130000FD1DEE0FFF1FEE0FFF1FE754FC4F808502
:101310009185019691878087F601EE0FFF1FEC0DF6
:10132000FD1DEE0FFF1FEE0FFF1FDF01A754BC4F87
:1013300016968C9116978F5FE4018E8318968D9187
:101340009C91199799878887E554FC4F80818A87FB
:101350001B8610828C91DF91CF911F910F91FF908E
:10136000DF90CF90BF90AF909F908F900895AF92F5
:10137000BF92CF92DF92EF92FF920F931F93DF9372
:10138000CF93CDB7DEB7C558D0400FB6F894DEBFC7
:101390000FBECDBF64E670E080E090E079D483DAE0
:1013A00046E1A42EB12CAC0EBD1E3AE0C32ED12CCA
:1013B000CC0EDD1E2EE1E22EF12CEC0EFD1E8E0178
:1013C0000F5F1F4F1AC08CE993E028D2682F80E08E
:1013D000A5019601E6DC882381F08D8D882369F4D0
:1013E000D801F70189E001900D928150E1F78FE774
:1013F00093E068854AE050E05CD78CE993E0DED169
:101400001816190604F3CB57DF4F0FB6F894DEBF5A
:101410000FBECDBFCF91DF911F910F91FF90EF9045
:10142000DF90CF90BF90AF9008958F929F92AF9230
:10143000BF92CF92DF92EF92FF920F931F93CF93C1
:10144000DF938FE793E0BAD1892B09F4D4C08FE7FB
:1014500093E0E4D1EC0181369105E1F58FE793E06B
:1014600060E072E042D78DB79EB70C970FB6F89444
:101470009EBF0FBE8DBF2DB73EB72F5F3F4F80E0A1
:1014800090E0A0E0B0E0EDB7FEB781839283A38344
:10149000B483F90184839583A683B783808791877A
:1014A000A287B38780E991E040E050E060E87FE305
:1014B00000E010E020E030E06801790148015901C6
:1014C0002BDB8DB79EB70C960FB6F8949EBF0FBE60
:1014D0008DBF87C08236910509F03EC0CDB7DEB71B
:1014E00060970FB6F894DEBF0FBECDBFEDB7FEB765
:1014F000319680E090E0A0E0B0E089839A83AB83EE
:10150000BC8384839583A683B78380879187A287D2
:10151000B38784879587A687B787BC01CD019B01D8
:10152000AC010F2EF0E0EF2EF0E4FF2EFCE90F2FC0
:10153000F5E41F2FF02D5B016C0143DAEDB7FEB728
:1015400070960FB6F894FEBF0FBEEDBF8FE793E025
:1015500068E072E0CAD64FC084369105C1F58FE7C6
:1015600093E061E172E0C1D68DB79EB70C970FB6DC
:10157000F8949EBF0FBE8DBFEDB7FEB7319680E0E9
:1015800090E0A0E0B0E0CDB7DEB789839A83AB836B
:10159000BC8384839583A683B78380879187A28742
:1015A000B38780E991E040E050E060E070E08A01BC
:1015B0009B016A017B014A015B01AEDAEDB7FEB720
:1015C0003C960FB6F894FEBF0FBEEDBF14C0833635
:1015D000910539F48FE793E06CE172E086D6AED9DD
:1015E0000AC0C536D10539F48FE793E064E272E0B2
:1015F0007CD6D6D88AD8BBDEDF91CF911F910F91D0
:10160000FF90EF90DF90CF90BF90AF909F908F9022
:1016100008958F929F92AF92BF92CF92DF92EF92F6
:10162000FF920F931F93CF93DF930CE913E0C80150
:1016300040E051EE60E070E060D0C8016BE272E023
:1016400054D60FE713E0C80140E855E260E070E0CF
:1016500054D0C80160E372E048D68091390260E05E
:10166000D2D310927E0306D360937A0370937B03E8
:1016700080937C0390937D038DB79EB70C970FB634
:10168000F8949EBF0FBE8DBFEDB7FEB7319680E0D8
:1016900090E0A0E0B0E0CDB7DEB789839A83AB835A
:1016A000BC8384839583A683B78380879187A28731
:1016B000B38780E991E040E050E060E87FE300E03C
:1016C00010E020E030E0680179014801590124DA96
:1016D0008DB79EB70C960FB6F8949EBF0FBE8DBF08
:1016E000DF91CF911F910F91FF90EF90DF90CF90FE
:1016F000BF90AF909F908F9008950F931F93DC0140
:10170000ED91FC910288F389E02D20E030E000E0CB
:1017100010E019951F910F9108958F92AF92CF927B
:10172000EF92FF920F931F93DF93CF93CDB7DEB766
:10173000FC011382128288EE93E0A0E0B0E0848383
:101740009583A683B78385E493E09183808355874F
:10175000448737872687118B008BF38AE28AC48AF5
:10176000A58A868A70E0CB0123E0880F991F2A950D
:10177000E1F79C012B5C3B4F308F278B8B5A9B4FA3
:10178000928F818F81E090E002C0880F991F6A9547
:10179000E2F720917504282B20937504CF0140E0D7
:1017A00051EE60E070E0A9DFCF91DF911F910F91C2
:1017B000FF90EF90CF90AF908F900895FC01838DB4
:1017C000882319F42FEF3FEF0DC00788F08DE02D2F
:1017D0002081318182819381281B390B84819581FD
:1017E00028233923C9010895FC01838D882319F426
:1017F0002FEF3FEF11C0018CF28DE02D2081318160
:1018000082819381281B390B2095309584819581A5
:10181000282339232F5F3F4FC9010895FC01838D91
:10182000882361F0A789B08D2D913C911197129674
:101830008D919C9113972817390721F44FEF5FEF93
:10184000CA01089512968D919C9113971696ED9169
:10185000FC911797E80FF91F408112968D919C918A
:101860001397019614962D913C91159782239323FB
:1018700013969C938E93129750E0E2CFFC01838DD8
:10188000882351F00788F08DE02D208131818281FD
:1018900093812817390721F42FEF3FEFC9010895ED
:1018A000828193810680F781E02DE80FF91F808106
:1018B000282F30E0F3CFDC015796ED91FC9158973B
:1018C00082819381918380835996ED91FC915A97FF
:1018D00080819181938382830895DC015B968C9152
:1018E0005B978823A9F15996ED91FC915A97208135
:1018F00031812F5F3F4F84819581282339235C9666
:101900008C915C97882329F082819381281739076D
:10191000F9F08281938128173907D9F38081918169
:101920000680F781E02DE80FF91F60835996ED914D
:10193000FC915A97318320835296ED91FC915397F5
:10194000808156969C91892B808321E030E002C0F3
:1019500020E030E0C9010895CF93DF93EC011B82B2
:101960001A828A819B81998388831D821C828E8141
:101970009F81009719F023D31F821E82DF91CF91A0
:1019800008950F931F938C01DC015296ED91FC9109
:101990005397208156968C91569755969C915597C2
:1019A000892B80958223808357968D919C9158979F
:1019B000D3DFF801818D928DCFDFD8015B961C9229
:1019C0001F910F9108950F931F93CF93DF938C0175
:1019D000FC0113821282828193819183808341E092
:1019E000A1E0B0E001C04F5FFD01042E02C0EE0F88
:1019F000FF1F0A94E2F79B0182E06130780710F044
:101A000020E032E0E217F30770F3C1E0D0E002C05B
:101A1000CC0FDD1F4A95E2F72197F8012681378127
:101A20002115310539F0848195818C179D0779F056
:101A3000C901C5D2F801D583C483CE01019622D253
:101A40009C01F8019783868380E0232B09F081E0D5
:101A5000DF91CF911F910F910895AF92BF92CF92D6
:101A6000DF92EF92FF920F931F93CF93DF937C014E
:101A70005A016B01E901DC015B968C915B9788232D
:101A8000F1F02115310539F45796ED91FC915897F5
:101A9000C481D58121960115110549F4D7015996C4
:101AA000ED91FC915A97048115810F5F1F4FD7016B
:101AB000ED91FC910088F189E02DC7011995F7019E
:101AC0008789908D209711F4C0E8D0E0BE017BDFBC
:101AD000882379F0D70159968D919C915A970115D9
:101AE000110511F400E110E0B8016DDF882309F061
:101AF0004BC0D701ED91FC910088F189E02DC70121
:101B0000199565C0D7015096ED91FC915197B0E0C1
:101B1000AB16B1EEBB06B0E0CB06B0E0DB0609F4D5
:101B200052C081E090E0D70154960C9002C0880F1B
:101B3000991F0A94E2F7808360E079E08DE390E0FA
:101B4000A601950179D42150304040405040CA014F
:101B5000B90122E030E040E050E06ED4D7011C969D
:101B6000ED91FC911D9730831E96ED91FC911F978E
:101B70002083D7015296ED91FC9153978081559621
:101B80009C91892B808323C0D7015996ED91FC91BC
:101B90005A97138212828281938191838083579610
:101BA000ED91FC91589713821282828193819183E7
:101BB000808381E05B968C931A141B041C041D0423
:101BC0000CF4A0CFD6CF108220E130E0C7CFDF9158
:101BD000CF911F910F91FF90EF90DF90CF90BF902A
:101BE000AF9008951F920F920FB60F9211242F936A
:101BF0003F938F939F93AF93BF9380917A0490917B
:101C00007B04A0917C04B0917D0430917E04019608
:101C1000A11DB11D232F2D5F2D3720F02D570196CB
:101C2000A11DB11D20937E0480937A0490937B04C0
:101C3000A0937C04B0937D04809176049091770406
:101C4000A0917804B09179040196A11DB11D8093F3
:101C5000760490937704A0937804B0937904BF91AD
:101C6000AF919F918F913F912F910F900FBE0F9049
:101C70001F9018958FB7F89420917A0430917B04C7
:101C800040917C0450917D048FBFB901CA01089531
:101C90009B01AC017FB7F894809176049091770412
:101CA000A0917804B091790466B5A89B05C06F3FF8
:101CB00019F00196A11DB11D7FBFBA2FA92F982F32
:101CC0008827860F911DA11DB11D62E0880F991F05
:101CD000AA1FBB1F6A95D1F7BC012DC0FFB7F894AE
:101CE0008091760490917704A0917804B091790462
:101CF000E6B5A89B05C0EF3F19F00196A11DB11DE7
:101D0000FFBFBA2FA92F982F88278E0F911DA11DD5
:101D1000B11DE2E0880F991FAA1FBB1FEA95D1F7FA
:101D2000861B970B885E9340C8F22150304040409C
:101D3000504068517C4F211531054105510571F620
:101D40000895789484B5826084BD84B5816084BD33
:101D500085B5826085BD85B5816085BDEEE6F0E024
:101D6000808181608083E1E8F0E010828081826080
:101D70008083808181608083E0E8F0E08081816001
:101D80008083E1EBF0E0808184608083E0EBF0E031
:101D9000808181608083E1E9F0E0808182608083DE
:101DA000808181608083E0E9F0E0808181608083D0
:101DB000E1EAF0E0808182608083808181608083BD
:101DC000E0EAF0E0808181608083E1E2F1E08081FF
:101DD00082608083808181608083E0E2F1E08081A5
:101DE00081608083EAE7F0E0808184608083808185
:101DF000826080838081816080838081806880832D
:101E00001092C1000895CF93DF93482F50E0CA018C
:101E100088589E4FFC0134914E5C5E4FFA018491CC
:101E2000882369F190E0880F991FFC01EC51FF4F66
:101E3000A591B491FC01E250FF4FC591D491662366
:101E400051F42FB7F8948C91932F909589238C930C
:101E5000888189230BC0623061F42FB7F8948C918C
:101E6000932F909589238C938881832B88832FBF10
:101E700006C09FB7F8948C91832B8C939FBFDF9102
:101E8000CF9108950F931F93CF93DF93BC018230BE
:101E9000910510F462E070E0E0918104F091820419
:101EA00040E050E0A0E0B0E024C08081918186173E
:101EB0009707D0F08617970771F482819381109766
:101EC00029F013969C938E9312972CC090938204C2
:101ED0008093810427C04115510519F08417950797
:101EE00018F48D01AC01EF01DF01828193819C0127
:101EF000F9013097D1F641155105F9F0CA01861B59
:101F0000970B8430910580F48A819B81011511051E
:101F100021F0F8019383828304C09093820480931C
:101F20008104FE01329645C0FE01E80FF91F61935E
:101F300071930297998388833CC080917F0490912C
:101F40008004892B41F480913D0290913E02909350
:101F5000800480937F0440913F02509140024115DC
:101F6000510541F44DB75EB780913B0290913C0220
:101F7000481B590B20917F043091800424173507AA
:101F8000B0F4CA01821B930B8617970780F0AB0150
:101F90004E5F5F4F8417950750F0420F531F5093C9
:101FA000800440937F04F9016193719302C0E0E0E3
:101FB000F0E0CF01DF91CF911F910F910895CF9362
:101FC000DF939C01009709F48FC0EC0122971B82DC
:101FD0001A8260918104709182046115710581F407
:101FE00088819981820F931F20917F043091800412
:101FF0002817390739F5D0938004C0937F0474C043
:10200000DB0140E050E0AC17BD0708F1BB83AA83B9
:10201000FE0121913191E20FF31FAE17BF0779F452
:102020008D919C911197280F391F2E5F3F4F398357
:10203000288312968D919C9113979B838A834115D7
:10204000510571F4D0938204C09381044DC012965F
:102050008D919C911397AD01009711F0DC01D3CFC6
:10206000DA011396DC93CE931297FA012191319104
:10207000E20FF31FCE17DF0769F488819981280FDB
:10208000391F2E5F3F4FFA01318320838A819B8164
:1020900093838283E0E0F0E0DB0112968D919C91C6
:1020A0001397009719F0BC01FD01F6CFAB014E5F0D
:1020B0005F4FDB018D919C91840F951F20917F04D0
:1020C000309180042817390779F4309729F4109259
:1020D00082041092810402C0138212824250504046
:1020E0005093800440937F04DF91CF910895089529
:1020F000CF93DF9326DEFBDF8CDAC0E0D0E095D90A
:102100002097E9F30E940000FACFCF92DF92EF927E
:10211000FF920F931F93CF93DF937C016B018A0192
:10212000C0E0D0E00FC0D6016D916D01D701ED91F7
:10213000FC910190F081E02DC7011995C80FD91FBE
:10214000015010400115110571F7CE01DF91CF91BB
:102150001F910F91FF90EF90DF90CF900895EF9235
:10216000FF920F931F938C01DC01ED91FC91019084
:10217000F081E02D6DE019957C01D801ED91FC9185
:102180000190F081E02DC8016AE019959C012E0DA7
:102190003F1DC9011F910F91FF90EF900895CF93BC
:1021A000DF93EC016115710519F420E030E00FC0F8
:1021B000DB010D900020E9F71197A61BB70BE88112
:1021C000F9810280F381E02DAD0119959C01C901CF
:1021D000DF91CF9108954F925F927F928F929F925D
:1021E000AF92BF92CF92DF92EF92FF920F931F9325
:1021F000DF93CF93CDB7DEB7A1970FB6F894DEBFCC
:102200000FBECDBF2C01742ECB01223008F42AE082
:1022100019A231E2C32ED12CCC0EDD1E822E9924C0
:10222000AA24BB24672D752FA5019401E3D0790161
:102230008A01C801B701A5019401BDD0472D461BF5
:102240000894C108D1084A3014F4405D01C0495CCB
:10225000F6014083E114F1040105110521F07E2C03
:102260005F2DC801DFCFC201B60199DFA1960FB67D
:10227000F894DEBF0FBECDBFCF91DF911F910F91BC
:10228000FF90EF90DF90CF90BF90AF909F908F9096
:102290007F905F904F900895DC012115310541F446
:1022A000ED91FC910190F081E02D642F1995089536
:1022B00092CFCF92DF92EF92FF920F931F936C0118
:1022C000E62E9A01FF2400E010E0B801A701E4DF48
:1022D0008C01C60144DF080F191FC8011F910F911F
:1022E000FF90EF90DF90CF900895EF92FF920F93C1
:1022F0001F937C0154DF8C01C70131DF080F191FC8
:10230000C8011F910F91FF90EF90089533D088F08E
:102310009F5790F0B92F9927B751A0F0D1F0660FD1
:10232000771F881F991F1AF0BA95C9F712C0B130EC
:1023300081F03AD0B1E0089537C0672F782F882711
:10234000B85F39F0B93FCCF3869577956795B3952B
:10235000D9F73EF490958095709561957F4F8F4F9A
:102360009F4F089557FD9058440F551F59F05F3FF8
:1023700071F04795880F97FB991F61F09F3F79F0A7
:1023800087950895121613061406551FF2CF469529
:10239000F1DF08C0161617061806991FF1CF8695AB
:1023A0007105610508940895E894BB27662777278F
:1023B000CB0197F90895629FD001739FF001829F2E
:1023C000E00DF11D649FE00DF11D929FF00D839FC4
:1023D000F00D749FF00D659FF00D9927729FB00D61
:1023E000E11DF91F639FB00DE11DF91FBD01CF0174
:1023F00011240895A1E21A2EAA1BBB1BFD010DC0DA
:10240000AA1FBB1FEE1FFF1FA217B307E407F507A4
:1024100020F0A21BB30BE40BF50B661F771F881F80
:10242000991F1A9469F760957095809590959B0116
:10243000AC01BD01CF01089597FB092E05260ED0F2
:1024400057FD04D0D7DF0AD0001C38F450954095D2
:10245000309521953F4F4F4F5F4F0895F6F7909578
:102460008095709561957F4F8F4F9F4F0895EE0F28
:0E247000FF1F0590F491E02D1994F894FFCF12
:10247E0041524D494E472D004F5645525249444503
:10248E00002D44495341524D494E4700434C45415E
:10249E0052454400534554205750007465737400E0
:1024AE0072656164790001FFC80B0080008304002F
:1024BE0000327C8900EDD9687700000059000000D9
:1024CE000000000000D69FDCA81817AA90437327BF
:1024DE00F6B968EDF4DED409FEE61C1C84DDE80BCB
:1024EE00992927D6DF8D210F036418EFEE1EF0B762
:1024FE00828200941500347C0000001400988F0036
:10250E0000000000000000000000E7B73F360000AA
:10251E000000000000AF669ED038000000000000F2
:10252E00000000000000000000000000000000009D
:10253E00000000000000000000000000000000008D
:10254E000000000000000086DBD0BC541613158678
:10255E00004E44BD7F6F1515900100000000000075
:10256E00000000000000000000000000000000005D
:10257E00000000000000000000000000000000004D
:10258E00000000000000000000000000000000003D
:10259E00000000000000000000000000000000002D
:1025AE0000000000000000000000CC31AA2C532EC9
:1025BE0000000000006D0C8510DE0B0E0C3E0C5B57
:0A25CE000CF40B7D0BC10C2D0D0069
:00000001FF
