:1000000002C100002DC100002BC1000029C1000069
:1000100027C1000025C1000023C1000021C100004C
:100020001FC100001DC100001BC1000019C100005C
:1000300017C1000015C1000013C1000011C100006C
:100040000FC100000DC100000BC1000009C100007C
:1000500007C1000005C1000003C100000C94080E98
:10006000FFC0000004C2000042C20000F9C000004E
:10007000F7C00000F5C00000F3C00000F1C00000B0
:10008000EFC00000EDC00000EBC00000E9C00000C0
:100090005CC100009AC10000E3C00000E1C00000A4
:1000A000DFC00000DDC00000DBC00000D9C00000E0
:1000B000D7C00000D5C00000D3C00000D1C00000F0
:1000C000CFC00000CDC00000CBC00000C9C0000000
:1000D000C7C00000C5C00000C3C00000C1C0000010
:1000E000BFC0000000002100240027002A002D00CE
:1000F0003000330001010000040107010A01000083
:100100002200250028002B002E00310034000201BF
:100110000000050108010B0100002000230026005B
:1001200029002C002F00320000010000030106010D
:10013000090105050505070508080808020202026D
:100140000A0A080804040404010101010101010173
:100150000303030303030303040707070C0C0C0C3E
:100160000C0C0C0C02020202060606060606060627
:100170000B0B0B0B0B0B0B0B0102102020080810B4
:100180002040102040800201020108040201010207
:1001900004081020408080402010080402018004E0
:1001A000020180402010080402010804020101023B
:1001B0000408102040800102040810204080000044
:1001C000090A02080B0C0D070603040100000000D9
:1001D000000000000000000000000000000000001F
:1001E0000000000000000000000011100F000000DF
:1001F00000000000000000000000000000000000FF
:1002000000000000C90211241FBECFEFD1E2DEBF03
:10021000CDBF00E00CBF13E0A0E0B2E0EEE6FAE2F2
:1002200000E00BBF02C007900D92AC36B107D9F7C2
:100230001BBE14E0ACE6B3E001C01D92A539B107C6
:10024000E1F712E0C6E0D2E004C02297FE010E946E
:100250003115C430D107C9F70E948E100C943515A2
:10026000CFCEFB01DC0102C001900D924150504005
:10027000D8F70895FF920F931F93CF93DF93EC016C
:10028000F02E8EEF8A832B836D834E838091D20371
:100290008C838F5F8093D203022F10E0F801359694
:1002A000DE0113966FEF7FEF2D912627822F829527
:1002B000807F822790E0382F2227AC01440F551F02
:1002C000440F551F440F551F24273527672F7727C5
:1002D0006227732724E0959587952A95E1F768278B
:1002E0007927319709F72F2D2627822F8295807F36
:1002F000822790E0382F2227AC01E3E0440F551FFE
:10030000EA95E1F724273527472F55272427352756
:1003100044E0959587954A95E1F728273927DE012E
:1003200018968B81FD01E80FF11D20838B81A80FAA
:10033000B11D11963C939801285F3F4FC901DF9191
:10034000CF911F910F91FF9008951F920F920FB6BA
:100350000F920BB60F9211242F933F934F938F93CD
:100360009F93EF93FF934091CE0020914F043091E3
:1003700050042F5F3F4F80915304909154042823E1
:10038000392380915104909152042817390779F04C
:1003900080914F0490915004E0915504F0915604DF
:1003A000E80FF91F40833093500420934F04FF91CE
:1003B000EF919F918F914F913F912F910F900BBE95
:1003C0000F900FBE0F901F9018951F920F920FB6AF
:1003D0000F920BB60F9211242F933F938F939F93FD
:1003E000EF93FF93209171043091720480916F0418
:1003F0009091700428173907E9F080917104909169
:100400007204E0917504F0917604E80FF91F808181
:100410008093CE0080917104909172040196209196
:100420007304309174048223932390937204809315
:10043000710410C020916F04309170048091710498
:10044000909172042817390729F48091C9008F7D93
:100450008093C900FF91EF919F918F913F912F91D0
:100460000F900BBE0F900FBE0F901F9018951F920C
:100470000F920FB60F920BB60F9211242F933F934A
:100480004F938F939F93EF93FF934091C6002091DA
:100490004704309148042F5F3F4F80914B04909167
:1004A0004C04282339238091490490914A04281749
:1004B000390779F08091470490914804E0914D0408
:1004C000F0914E04E80FF91F4083309348042093C5
:1004D0004704FF91EF919F918F914F913F912F9101
:1004E0000F900BBE0F900FBE0F901F9018951F928C
:1004F0000F920FB60F920BB60F9211242F933F93CA
:100500008F939F93EF93FF932091690430916A0436
:10051000809167049091680428173907E9F0809169
:10052000690490916A04E0916D04F0916E04E80F03
:10053000F91F80818093C6008091690490916A04BC
:10054000019620916B0430916C0482239323909345
:100550006A048093690410C0209167043091680494
:100560008091690490916A042817390729F48091D1
:10057000C1008F7D8093C100FF91EF919F918F917A
:100580003F912F910F900BBE0F900FBE0F901F90B9
:1005900018958F92AF92CF92EF92FF920F931F9385
:1005A00081E993E061E04DEC50E02CEC30E008ECA8
:1005B00010E0A9ECEA2EF12CCC24C394F8E9AF2E7C
:1005C000E0E28E2E0E94A30B8EEA93E060E045EC01
:1005D00050E024EC30E000EC10E071ECE72EF12C60
:1005E0000E94A30B1F910F91FF90EF90CF90AF90BF
:1005F0008F9008958F929F92AF92BF92CF92EF9279
:10060000FF920F93DF93CF93CDB7DEB7A1970FB6CD
:10061000F894DEBF0FBECDBF382F762F89829A8225
:10062000AB82BC828FA598A9A9A9BAA98D839E8304
:10063000AF83B8878BA99CA9ADA9BEA989879A87E2
:10064000AB87BC878FA998ADA9ADBAAD8D879E87C2
:10065000AF87B88B8BAD9CADADADBEAD898B9A8BA2
:10066000AB8BBC8B23968CAD9DADAEADBFAD239750
:100670008D8B9E8BAF8BB88F27968CAD9DADAEAD1D
:10068000BFAD2797898F9A8FAB8FBC8FFE8EED8E73
:100690002F8F08A3C9A2DA011896FE01319681E2D4
:1006A00001900D928150E1F78CE4FA018783CA0131
:1006B000632F472F21E208E9DDDDA1960FB6F894FC
:1006C000DEBF0FBECDBFCF91DF910F91FF90EF90B6
:1006D000CF90BF90AF909F908F9008950F931F93EE
:1006E0008B01FB01238130E0285F3F4FAB014E5F60
:1006F0005F4FBA01A901B5DDF801238130E0285F21
:100700003F4FC9011F910F910895EF92FF920F93F0
:100710001F93DF93CF93CDB7DEB7C15ED0400FB646
:10072000F894DEBF0FBECDBF60914A0240914B02EC
:100730002091490230916C0381E090E09A83898393
:100740002B833C8332E7E32EF12CEC0EFD1E8981D6
:100750009A81AB81BC81F70180879187A287B3879B
:1007600089E28783C70124E00CE184DD8E010B5F01
:100770001F4FC801B701B2DFAC0181E993E0B801B6
:100780000E949B10CF51DF4F0FB6F894DEBF0FBE13
:10079000CDBFCF91DF911F910F91FF90EF90089502
:1007A000EF92FF920F931F93DF93CF93CDB7DEB7F6
:1007B000C250D1400FB6F894DEBF0FBECDBF10912E
:1007C0004A0200914B026091490270916C0320E053
:1007D00030E040E050E029833A834B835C8380E043
:1007E00090E0A0EAB0E48D839E83AF83B887298729
:1007F0003A874B875C872D873E874F87588B8BE7DF
:1008000094E1A2E1B1E4898B9A8BAB8BBC8B8D8B8D
:100810009E8BAF8BB88F80E090E0A8ECB2E4898F1C
:100820009A8FAB8FBC8F81E090E09E8F8D8F80E19F
:1008300090E098A38F8F69A37AA31BA21CA281E0EA
:100840008DA3DE01A556BF4FFE01319685E20190D2
:100850000D928150E1F743E9E42EF12CEC0EFD1EE0
:1008600087E2F7018783C701612F402F25E20EEF52
:1008700001DD8E010A5D1F4FC801B7012FDFAC01FA
:1008800081E993E0B8010E949B10CE5FDE4F0FB666
:10089000F894DEBF0FBECDBFCF91DF911F910F91B6
:1008A000FF90EF900895EF92FF920F931F93DF93C5
:1008B000CF93CDB7DEB7C15ED0400FB6F894DEBFA0
:1008C0000FBECDBF60914A0240914B022091490278
:1008D00030916C0381E090E09A8389832B833C8381
:1008E00072E7E72EF12CEC0EFD1E89819A81AB8117
:1008F000BC81F70180879187A287B38788E28783CD
:10090000C70124E006EEB6DC8E010B5F1F4FC80165
:10091000B701E4DEAC0181E993E0B8010E949B10CD
:10092000CF51DF4F0FB6F894DEBF0FBECDBFCF91D2
:10093000DF911F910F91FF90EF900895EF92FF923A
:100940000F931F93DF93CF93CDB7DEB7CF5DD0402A
:100950000FB6F894DEBF0FBECDBF60914A02409142
:100960004B0290916C038091490289839A83F0E74E
:10097000EF2EF12CEC0EFD1E89819A81F7019187F3
:1009800080878DE28783C70122E008EE73DC8E0149
:100990000D5F1F4FC801B701A1DEAC0181E993E0F3
:1009A000B8010E949B10C152DF4F0FB6F894DEBF12
:1009B0000FBECDBFCF91DF911F910F91FF90EF90B0
:1009C00008952F923F924F925F926F927F928F92F3
:1009D0009F92AF92BF92CF92DF92EF92FF920F93CE
:1009E0001F93DF93CF93CDB7DEB7CF5ED0400FB666
:1009F000F894DEBF0FBECDBF39014A0120904A02F4
:100A000030904B025090490240906C030E948A1330
:100A10007A836983C401B3010E948A137C836B8348
:100A2000C801B7010E948A137E836D83C601B50198
:100A30000E948A1378876F83CB5FDE4F688179814C
:100A40008A819B81C550D1400E948A137A87698729
:100A5000C75FDE4F688179818A819B81C950D1400F
:100A60000E948A137C876B87C35FDE4F6881798120
:100A70008A819B81CD50D1400E948A137E876D87E9
:100A8000CF5EDE4F688179818A819B81C151D140DF
:100A90000E948A13788B6F87598A4A8ADE01A85789
:100AA000BF4FFE01319682E101900D928150E1F736
:100AB000A0E8EA2EF12CEC0EFD1E86E4F7018783F8
:100AC000C701622D432D22E10CE7D4DB8E010D5EC0
:100AD0001F4FC801B70102DEAC0181E993E0B80104
:100AE0000E949B10C151DF4F0FB6F894DEBF0FBEBE
:100AF000CDBFCF91DF911F910F91FF90EF90DF90CD
:100B0000CF90BF90AF909F908F907F906F905F90AD
:100B10004F903F902F9008952F923F924F925F9267
:100B20006F927F928F929F92AF92BF92CF92DF92FD
:100B3000EF92FF920F931F93DF93CF93CDB7DEB762
:100B4000C55FD0400FB6F894DEBF0FBECDBFC05119
:100B5000DF4F99838883C05FD040CE50DF4F4883FA
:100B600059836A837B83C25FD04018012901609159
:100B70004A0240914B028091490290916C032AE015
:100B800030E03A8329833C832B833E832D8338874F
:100B90002F833A8729873C872B873E872D87388B81
:100BA0002F87898B9A8BDE01A857BF4FFE013196A4
:100BB00082E101900D928150E1F7B0E86B2E712C2B
:100BC0006C0E7D1E86E4D30117968C93C30122E13F
:100BD0000CE750DBCE50DF4F88819981AA81BB8121
:100BE000C25FD0408093700390937103A09372030F
:100BF000B09373032092740330927503409276038E
:100C000050927703C0927803D0927903E0927A03EE
:100C1000F0927B0380927C0390927D03A0927E03EE
:100C2000B0927F03C55FDE4F88819981AA81BB8125
:100C3000CB50D1408093800390938103A093820393
:100C4000B0938303C15FDE4F88819981AA81BB8104
:100C5000CF50D1408093840390938503A093860363
:100C6000B0938703CD5EDE4F88819981AA81BB81D5
:100C7000C351D1408093880390938903A0938A0342
:100C8000B0938B03C051DF4FA881B981C05FD040C2
:100C9000B0936E03A0936D03EDB7FEB778970FB6D0
:100CA000F894FEBF0FBEEDBF3196ADB7BEB711963B
:100CB0002D923D924D925C921497C482D582E68229
:100CC000F78280869186A286B386C55FDE4F8881D3
:100CD0009981AA81BB81CB50D14084879587A68713
:100CE000B787C15FDE4F88819981AA81BB81CF50D0
:100CF000D140808B918BA28BB38BCD5EDE4F8881F0
:100D00009981AA81BB81C351D140848B958BA68BDD
:100D1000B78B80914A0260914B02A3012091490256
:100D200000916C03C051DF4FE880F980C05FD04074
:100D3000C0906F03CE50DF4F88809980AA80BB801F
:100D4000C25FD04057DCADB7BEB758960FB6F89427
:100D5000BEBF0FBEADBF8E010D5E1F4FC801B301F8
:100D6000BDDCAC0181E993E0B8010E949B10CB503F
:100D7000DF4F0FB6F894DEBF0FBECDBFCF91DF912E
:100D80001F910F91FF90EF90DF90CF90BF90AF90A9
:100D90009F908F907F906F905F904F903F902F909B
:100DA00008958F929F92AF92BF92CF92DF92FF925F
:100DB0000F931F93CF93DF93F62E4901C82EDD24A6
:100DC0008601000F111F5801AC0CBD1CE501CC0FB2
:100DD000DD1FCC0FDD1FC553DC4F18828B819C813A
:100DE0008430910509F48EC0853091055CF4823021
:100DF000910509F443C0833091050CF0BFC09923DD
:100E0000C4F44FC28730910509F443C1883091057D
:100E100044F48530910509F4DEC0069709F041C21B
:100E200007C18830910509F47AC1099709F039C2E0
:100E3000E7C18EEF681709F034C282E090E09C832E
:100E40008B8380E790E0C89ED001C99EB00DD89EEC
:100E5000B00D1124A952BC4F13961C92139788E32E
:100E600090E0C89EF001C99EF00DD89EF00D1124AF
:100E7000EE0FFF1FE752FC4F6083A4C1E5E6E617C3
:100E800088F489818F5F8983F501EE0FFF1FEE0FD4
:100E9000FF1FE353FC4F80818F5F8083188281E0C6
:100EA00090E02DC080E790E0C89EF001C99EF00D53
:100EB000D89EF00D1124E952FC4F63831D8280817E
:100EC0008627282F2295207F282730E0522F44277D
:100ED000C90163E0880F991F6A95E1F748275927F0
:100EE000818190E04827592784E0359527958A9598
:100EF000E1F7422753275183408384E090E09C83AD
:100F00008B83CFC18CE190E0C89EF001C99EF00DAB
:100F1000D89EF00D1124EE0FFF1FEE0FFF1FE552BC
:100F2000FC4F608380E790E0C89EF001C99EF00D01
:100F3000D89EF00D1124E952FC4F80818627282F7E
:100F40002295207F282730E0522F4427C901B3E0A3
:100F5000880F991FBA95E1F748275927818190E0BA
:100F600048275927A4E035952795AA95E1F7422708
:100F700053275183408383E090E0C1CF80E790E026
:100F8000C89EF001C99EF00DD89EF00D1124E952C3
:100F9000FC4F658380818627282F2295207F282774
:100FA00030E0522F4427C90163E0880F991F6A95EA
:100FB000E1F748275927818190E04827592704E025
:100FC000359527950A95E1F74227532751834083AA
:100FD00085E090E094CF80E790E0C89EF001C99E44
:100FE000F00DD89EF00D1124E952FC4F66838081EC
:100FF0008627282F2295207F282730E0522F44274C
:10100000C901B3E0880F991FBA95E1F7482759271E
:10101000818190E048275927A4E035952795AA9526
:10102000E1F7422753275183408386E090E067CF62
:1010300080E790E0C89EF001C99EF00DD89EF00DAB
:101040001124E952FC4F678380818627282F22953F
:10105000207F282730E0522F4427C90163E0880F02
:10106000991F6A95E1F748275927818190E0482721
:10107000592794E0359527959A95E1F7422753270C
:10108000518340838381882309F446C087E090E040
:1010900036CF6D81F80183E0EE0FFF1F8A95E1F7EF
:1010A000E01BF10B319603E0EE0FFF1F0A95E1F70D
:1010B000E60FF11DE952FC4FF0826F5F6D8380E710
:1010C00090E0C89EF001C99EF00DD89EF00D11244D
:1010D000E952FC4F80818F25282F2295207F2827D9
:1010E00030E0522F4427C901B3E0880F991FBA9509
:1010F000E1F748275927818190E048275927A4E044
:1011000035952795AA95E1F74227532751834083C8
:101110008381681709F0C5C088E090E0F0CE80E7D1
:1011200090E0C89ED001C99EB00DD89EB00D11248C
:10113000A952BC4F9C911796EC911797F0E0EC5A8E
:10114000FD4F80818927482F4295407F482750E0F6
:10115000342F2227CA0173E0880F991F7A95E1F78F
:101160002827392711968C91119790E02827392745
:1011700064E0559547956A95E1F724273527119640
:101180003C932E938F2D90E0307082179307F9F0E7
:10119000F501EE0FFF1FEE0FFF1FE353FC4F8081A1
:1011A0008F5F8083188281E090E09C838B83FEEFC9
:1011B000FF1609F076C082E090E09C838B83139643
:1011C0001C9213978FEF9FEF8D939C936AC089E0D9
:1011D00090E09C838B83F80183E0EE0FFF1F8A95DC
:1011E000E1F7E01BF10B319603E0EE0FFF1F0A95CC
:1011F000E1F78D81E80FF11DE952FC4FF08251C0FB
:10120000262F30E080E790E0C89EB001C99E700DA7
:10121000D89E700D112469527C4FFB01818190E0B2
:1012200028173907E9F0F501EE0FFF1FEE0FFF1F3A
:10123000E353FC4F80818F5F8083188281E090E0D0
:101240009C838B83FEEFFF1661F582E090E09C8328
:101250008B83EB011B828FEF9FEF9983888321C0E3
:1012600081E0888381E090E09C838B83F801B3E088
:10127000EE0FFF1FBA95E1F7E01BF10B3196A3E0EB
:10128000EE0FFF1FAA95E1F78D81E80FF11DE852DF
:10129000FC4FF082DA01FB0180E701900D92815052
:1012A000E1F7D601AA0FBB1FAC0DBD1DAA0FBB1FD6
:1012B000AA0FBB1FA553BC4F8C91813069F58CE1FF
:1012C00090E0C89EF001C99EF00DD89EF00D11244B
:1012D000EE0FFF1FEE0FFF1FE552FC4F80811696A9
:1012E0008C93169718968D919C911997892B21F4C0
:1012F0001B961C921E921A97F601EE0FFF1FEC0D23
:10130000FD1DEE0FFF1FEE0FFF1FE553FC4F808505
:101310009185019691878087F601EE0FFF1FEC0DF6
:10132000FD1DEE0FFF1FEE0FFF1FDF01A553BC4F8A
:1013300016968C9116978F5FE4018E8318968D9187
:101340009C91199799878887E353FC4F80818A87FE
:101350001B8610828C91DF91CF911F910F91FF908E
:10136000DF90CF90BF90AF909F908F900895AF92F5
:10137000BF92CF92DF92EF92FF920F931F93DF9372
:10138000CF93CDB7DEB7C15AD0400FB6F894DEBFC9
:101390000FBECDBF64E670E080E090E08FD483DACA
:1013A00032E3A32EB12CAC0EBD1E6E010894C11CFD
:1013B000D11C2DE0E22EF12CEC0EFD1E8E01065C00
:1013C0001F4F77C081E993E03FD2682F80E0A501ED
:1013D0009601E7DC882309F46CC089AD873209F0F7
:1013E00068C0D701F80185E201900D928150E1F7C4
:1013F0008EEA93E060E072E0D1D769A57AA58EEA23
:1014000093E04AE050E06BD78EEA93E060E072E050
:10141000C5D78EEA93E06FA54AE050E070D78EEA18
:1014200093E060E072E0BAD76BA57CA58EEA93E00A
:101430004AE050E054D78EEA93E060E072E0AED725
:101440008EEA93E068A94AE050E059D78EEA93E02B
:1014500060E072E0A3D74D8D5E8D6F8D78A18EEA2E
:1014600093E022E030E00E94A1128EEA93E060E077
:1014700072E094D749A15AA16BA17CA18EEA93E0B6
:1014800022E030E00E94A1128EEA93E060E072E078
:1014900085D74DA15EA16FA178A58EEA93E022E0E9
:1014A00030E00E94A1128EEA93E060E072E00E94B8
:1014B000A31281E993E098D1181619060CF482CF93
:1014C000CF55DF4F0FB6F894DEBF0FBECDBFCF9123
:1014D000DF911F910F91FF90EF90DF90CF90BF9021
:1014E000AF9008958F929F92AF92BF92CF92DF926A
:1014F000EF92FF920F931F93CF93DF938EEA93E0C7
:1015000073D1892B09F4D5C08EEA93E09DD1EC010B
:1015100081369105E9F58EEA93E065E072E00E947C
:10152000A3128DB79EB70C970FB6F8949EBF0FBE4F
:101530008DBF2DB73EB72F5F3F4F80E090E0A0E01A
:10154000B0E0EDB7FEB781839283A383B483F90142
:1015500084839583A683B78380879187A287B38787
:1015600080E991E040E050E060E87FE300E010E0D7
:1015700020E030E06801790148015901CDDA8DB7EA
:101580009EB70C960FB6F8949EBF0FBE8DBF87C056
:101590008236910509F03EC0CDB7DEB760970FB631
:1015A000F894DEBF0FBECDBFEDB7FEB7319680E039
:1015B00090E0A0E0B0E089839A83AB83BC8384830E
:1015C0009583A683B78380879187A287B387848713
:1015D0009587A687B787BC01CD019B01AC010F2E73
:1015E000F0E0EF2EF0E4FF2EFCE90F2FF5E41F2FC3
:1015F000F02D5B016C01E5D9EDB7FEB770960FB623
:10160000F894FEBF0FBEEDBF8EEA93E06DE072E08E
:101610009AD74FC084369105C1F58EEA93E066E112
:1016200072E091D78DB79EB70C970FB6F8949EBF16
:101630000FBE8DBFEDB7FEB7319680E090E0A0E021
:10164000B0E0CDB7DEB789839A83AB83BC83848354
:101650009583A683B78380879187A287B38780E924
:1016600091E040E050E060E070E08A019B016A0197
:101670007B014A015B0150DAEDB7FEB73C960FB62D
:10168000F894FEBF0FBEEDBF14C08336910539F448
:101690008EEA93E061E272E056D750D90AC0C536AF
:1016A000D10539F48EEA93E069E272E04CD778D83C
:1016B0002CD85DDEDF91CF911F910F91FF90EF90BD
:1016C000DF90CF90BF90AF909F908F9008950F9331
:1016D0001F9301E913E0C80140E051EE60E070E0C3
:1016E00022D0C80160E372E02ED70EEA13E0C801F1
:1016F00040E855E260E070E016D0C80165E372E0B2
:1017000022D780914C0260E094D310929003C8D20B
:1017100060938C0370938D0380938E0390938F035B
:101720001F910F9108950F931F93DC01ED91FC9190
:101730000288F389E02D20E030E000E010E0199508
:101740001F910F9108958F92AF92CF92EF92FF92D7
:101750000F931F93DF93CF93CDB7DEB7FC011382B6
:10176000128288EE93E0A0E0B0E084839583A683A4
:10177000B78388E593E091838083558744873787D3
:101780002687118B008BF38AE28AC48AA58A868A0F
:1017900070E0CB0123E0880F991F2A95E1F79C01A7
:1017A000295B3B4F308F278B89599B4F928F818FBD
:1017B00081E090E002C0880F991F6A95E2F72091BE
:1017C0008704282B20938704CF0140E051EE60E08E
:1017D00070E0A9DFCF91DF911F910F91FF90EF9003
:1017E000CF90AF908F900895FC01838D882319F4DA
:1017F0002FEF3FEF0DC00788F08DE02D2081318164
:1018000082819381281B390B848195812823392378
:10181000C9010895FC01838D882319F42FEF3FEF50
:1018200011C0018CF28DE02D208131818281938164
:10183000281B390B209530958481958128233923E5
:101840002F5F3F4FC9010895FC01838D882361F00C
:10185000A789B08D2D913C91119712968D919C91F5
:1018600013972817390721F44FEF5FEFCA01089546
:1018700012968D919C9113971696ED91FC91179766
:10188000E80FF91F408112968D919C911397019654
:1018900014962D913C9115978223932313969C9334
:1018A0008E93129750E0E2CFFC01838D882351F094
:1018B0000788F08DE02D2081318182819381281766
:1018C000390721F42FEF3FEFC901089582819381F9
:1018D0000680F781E02DE80FF91F8081282F30E086
:1018E000F3CFDC015796ED91FC915897828193815B
:1018F000918380835996ED91FC915A9780819181D3
:10190000938382830895DC015B968C915B97882397
:10191000A9F15996ED91FC915A97208131812F5F61
:101920003F4F84819581282339235C968C915C9765
:10193000882329F08281938128173907F9F0828161
:10194000938128173907D9F3808191810680F78127
:10195000E02DE80FF91F60835996ED91FC915A979D
:10196000318320835296ED91FC9153978081569656
:101970009C91892B808321E030E002C020E030E0A0
:10198000C9010895CF93DF93EC011B821A828A81EB
:101990009B81998388831D821C828E819F81009701
:1019A00019F023D31F821E82DF91CF9108950F93E8
:1019B0001F938C01DC015296ED91FC91539720818D
:1019C00056968C91569755969C915597892B809554
:1019D0008223808357968D919C915897D3DFF8018D
:1019E000818D928DCFDFD8015B961C921F910F9154
:1019F00008950F931F93CF93DF938C01FC01138203
:101A00001282828193819183808341E0A1E0B0E0E2
:101A100001C04F5FFD01042E02C0EE0FFF1F0A94AC
:101A2000E2F79B0182E06130780710F020E032E0BD
:101A3000E217F30770F3C1E0D0E002C0CC0FDD1F66
:101A40004A95E2F72197F801268137812115310562
:101A500039F0848195818C179D0779F0C901C5D231
:101A6000F801D583C483CE01019622D29C01F801EE
:101A70009783868380E0232B09F081E0DF91CF916B
:101A80001F910F910895AF92BF92CF92DF92EF9284
:101A9000FF920F931F93CF93DF937C015A016B0149
:101AA000E901DC015B968C915B978823F1F02115AD
:101AB000310539F45796ED91FC915897C481D58141
:101AC00021960115110549F4D7015996ED91FC9124
:101AD0005A97048115810F5F1F4FD701ED91FC913B
:101AE0000088F189E02DC7011995F7018789908D4C
:101AF000209711F4C0E8D0E0BE017BDF882379F0A5
:101B0000D70159968D919C915A970115110511F4A1
:101B100000E110E0B8016DDF882309F04BC0D70168
:101B2000ED91FC910088F189E02DC701199565C000
:101B3000D7015096ED91FC915197B0E0AB16B1EE04
:101B4000BB06B0E0CB06B0E0DB0609F452C081E092
:101B500090E0D70154960C9002C0880F991F0A9408
:101B6000E2F7808360E079E08DE390E0A6019501E3
:101B70005BD72150304040405040CA01B90122E0BB
:101B800030E040E050E050D7D7011C96ED91FC9139
:101B90001D9730831E96ED91FC911F972083D701EE
:101BA0005296ED91FC915397808155969C91892B8B
:101BB000808323C0D7015996ED91FC915A971382E7
:101BC000128282819381918380835796ED91FC915B
:101BD000589713821282828193819183808381E05E
:101BE0005B968C931A141B041C041D040CF4A0CFE8
:101BF000D6CF108220E130E0C7CFDF91CF911F9187
:101C00000F91FF90EF90DF90CF90BF90AF9008952D
:101C10001F920F920FB60F9211242F933F938F9321
:101C20009F93AF93BF9380918C0490918D04A0916A
:101C30008E04B0918F04309190040196A11DB11DC6
:101C4000232F2D5F2D3720F02D570196A11DB11D9B
:101C50002093900480938C0490938D04A0938E0421
:101C6000B0938F048091880490918904A0918A0494
:101C7000B0918B040196A11DB11D809388049093AF
:101C80008904A0938A04B0938B04BF91AF919F9174
:101C90008F913F912F910F900FBE0F901F9018952D
:101CA0008FB7F89420918C0430918D0440918E046C
:101CB00050918F048FBFB901CA0108959B01AC01F7
:101CC0007FB7F8948091880490918904A0918A0448
:101CD000B0918B0466B5A89B05C06F3F19F00196C3
:101CE000A11DB11D7FBFBA2FA92F982F8827860F5E
:101CF000911DA11DB11D62E0880F991FAA1FBB1F76
:101D00006A95D1F7BC012DC0FFB7F8948091880483
:101D100090918904A0918A04B0918B04E6B5A89BA8
:101D200005C0EF3F19F00196A11DB11DFFBFBA2FED
:101D3000A92F982F88278E0F911DA11DB11DE2E0BC
:101D4000880F991FAA1FBB1FEA95D1F7861B970B17
:101D5000885E9340C8F22150304040405040685166
:101D60007C4F211531054105510571F60895789490
:101D700084B5826084BD84B5816084BD85B5826090
:101D800085BD85B5816085BDEEE6F0E0808181602E
:101D90008083E1E8F0E0108280818260808380812E
:101DA00081608083E0E8F0E0808181608083E1EB06
:101DB000F0E0808184608083E0EBF0E080818160EE
:101DC0008083E1E9F0E080818260808380818160AE
:101DD0008083E0E9F0E0808181608083E1EAF0E0E7
:101DE000808182608083808181608083E0EAF0E08E
:101DF000808181608083E1E2F1E080818260808384
:101E0000808181608083E0E2F1E080818160808375
:101E1000EAE7F0E080818460808380818260808353
:101E20008081816080838081806880831092C1007E
:101E30000895CF93DF93482F50E0CA0188589E4FF2
:101E4000FC0134914E5C5E4FFA018491882369F164
:101E500090E0880F991FFC01EC51FF4FA591B491C0
:101E6000FC01E250FF4FC591D491662351F42FB786
:101E7000F8948C91932F909589238C938881892352
:101E80000BC0623061F42FB7F8948C91932F90952A
:101E900089238C938881832B88832FBF06C09FB7AB
:101EA000F8948C91832B8C939FBFDF91CF910895F1
:101EB0000F931F93CF93DF93BC018230910510F4F1
:101EC00062E070E0E0919304F091940440E050E00F
:101ED000A0E0B0E024C08081918186179707D0F000
:101EE0008617970771F482819381109729F01396D2
:101EF0009C938E9312972CC0909394048093930498
:101F000027C04115510519F08417950718F48D0164
:101F1000AC01EF01DF01828193819C01F9013097CF
:101F2000D1F641155105F9F0CA01861B970B843093
:101F3000910580F48A819B810115110521F0F8013A
:101F40009383828304C09093940480939304FE014E
:101F5000329645C0FE01E80FF91F61937193029715
:101F6000998388833CC08091910490919204892B3D
:101F700041F4809150029091510290939204809389
:101F8000910440915202509153024115510541F480
:101F90004DB75EB780914E0290914F02481B590B8E
:101FA000209191043091920424173507B0F4CA01AE
:101FB000821B930B8617970780F0AB014E5F5F4F34
:101FC0008417950750F0420F531F5093920440938B
:101FD0009104F9016193719302C0E0E0F0E0CF0158
:101FE000DF91CF911F910F910895CF93DF939C01C3
:101FF000009709F48FC0EC0122971B821A8260912E
:102000009304709194046115710581F4888199811C
:10201000820F931F20919104309192042817390761
:1020200039F5D0939204C093910474C0DB0140E071
:1020300050E0AC17BD0708F1BB83AA83FE012191D4
:102040003191E20FF31FAE17BF0779F48D919C9188
:102050001197280F391F2E5F3F4F3983288312961F
:102060008D919C9113979B838A834115510571F43F
:10207000D0939404C09393044DC012968D919C917B
:102080001397AD01009711F0DC01D3CFDA0113965D
:10209000DC93CE931297FA0121913191E20FF31F55
:1020A000CE17DF0769F488819981280F391F2E5FC9
:1020B0003F4FFA01318320838A819B8193838283FE
:1020C000E0E0F0E0DB0112968D919C911397009770
:1020D00019F0BC01FD01F6CFAB014E5F5F4FDB0194
:1020E0008D919C91840F951F2091910430919204C1
:1020F0002817390779F4309729F410929404109234
:10210000930402C0138212824250504050939204B2
:1021100040939104DF91CF9108950895CF93DF9379
:1021200026DEFBDFD4DAC0E0D0E0DCD92097E9F38B
:102130000E940000FACFCF92DF92EF92FF920F93AE
:102140001F93CF93DF937C016B018A01C0E0D0E045
:102150000FC0D6016D916D01D701ED91FC910190F9
:10216000F081E02DC7011995C80FD91F015010400B
:102170000115110571F7CE01DF91CF911F910F91DC
:10218000FF90EF90DF90CF900895EF92FF920F9322
:102190001F938C01DC01ED91FC910190F081E02D09
:1021A0006DE019957C01D801ED91FC910190F081D1
:1021B000E02DC8016AE019959C012E0D3F1DC90153
:1021C0001F910F91FF90EF900895CF93DF93EC0153
:1021D0006115710519F420E030E00FC0DB010D90AE
:1021E0000020E9F71197A61BB70BE881F98102805F
:1021F000F381E02DAD0119959C01C901DF91CF91CB
:1022000008954F925F927F928F929F92AF92BF926A
:10221000CF92DF92EF92FF920F931F93DF93CF93B2
:10222000CDB7DEB7A1970FB6F894DEBF0FBECDBF16
:102230002C01742ECB01223008F42AE019A231E2DD
:10224000C32ED12CCC0EDD1E822E9924AA24BB24B1
:10225000672D752FA5019401C5D379018A01C801A5
:10226000B701A50194019FD3472D461B0894C108CF
:10227000D1084A3014F4405D01C0495CF601408346
:10228000E114F1040105110521F07E2C5F2DC80138
:10229000DFCFC201B60199DFA1960FB6F894DEBF79
:1022A0000FBECDBFCF91DF911F910F91FF90EF90A7
:1022B000DF90CF90BF90AF909F908F907F905F9076
:1022C0004F900895DC012115310541F4ED91FC9109
:1022D0000190F081E02D642F1995089592CFEF922F
:1022E000FF920F931F939A017B0100E010E0B80169
:1022F000A701E8DF1F910F91FF90EF900895EF92F3
:10230000FF920F931F939A01E62EFF2400E010E046
:10231000B801A701D7DF1F910F91FF90EF900895AB
:10232000CF92DF92EF92FF920F931F93CF93DF93A1
:10233000EC016A017B012115310541F4E881F98145
:102340000190F081E02D642F19951DC02A303105D0
:10235000C9F477FF16C0E881F9810190F081E02D82
:102360006DE219958C0144275527BA014C195D0976
:102370006E097F09CE012AE044DF9801280F391F3A
:1023800003C02AE03EDF9C01C901DF91CF911F917C
:102390000F91FF90EF90DF90CF90089516CF0895A2
:1023A0007F928F929F92AF92BF92CF92DF92EF92E5
:1023B000FF920F931F93CF93DF934C017A018B0110
:1023C000722ECB01BA01A8019701E9D2882321F02E
:1023D000C4016BE372E01FC0C0E0D0E057016801A8
:1023E000E894D7F8C601B5012FEF3FEF4FE75FE75D
:1023F000D6D2882349F4C601B5012FEF3FEF4FE74E
:102400005FE717D1181614F0C1E0D0E0219731F042
:10241000C4016FE372E0D9DEEC0184C0C801B701EA
:102420002FEF3FEF4FE75FE453D218164CF0C8018F
:10243000B7012FEF3FEF4FE75FECFBD0882324F489
:10244000C40163E472E0E7CFC801B70120E030E0E7
:1024500040E050E0EED087FD03C0C0E0D0E00EC009
:10246000D401ED91FC910190F081E02DC4016DE269
:102470001995EC0117FB109517F9109520E030E045
:1024800040E05FE3DD240AC0CA01B90120E030E08A
:1024900040E251E4D2D09B01AC01D394D714A0F315
:1024A000C801B70162D05B016C0134D17B018C01A2
:1024B000C401B801A7012AE030E004DFC80FD91F2A
:1024C000772031F0C40167E472E07FDEC80FD91FC6
:1024D000C801B7014BD19B01AC01C601B50144D085
:1024E0001FC020E030E040E251E4F6D17B018C01D6
:1024F0000CD15B016C01CC24B7FCC094DC2CC40172
:10250000B601A5012AE030E00BDFC80FD91FC601D4
:10251000B5012ED19B01AC01C801B70125D07A9439
:102520007720F9F6CE01DF91CF911F910F91FF90A7
:10253000EF90DF90CF90BF90AF909F908F907F9063
:1025400008952ECF0895EF92FF920F931F937C0171
:102550003CDE8C01C70119DE080F191FC8011F914D
:102560000F91FF90EF9008955058BB27AA270ED0E7
:1025700075C166D130F06BD120F031F49F3F11F47A
:102580001EF45BC10EF4E095E7FB51C1E92F77D152
:1025900080F3BA17620773078407950718F071F480
:1025A0009EF58FC10EF4E0950B2EBA2FA02D0B01D6
:1025B000B90190010C01CA01A0011124FF27591B88
:1025C00099F0593F50F4503E68F11A16F040A22F8E
:1025D000232F342F4427585FF3CF469537952795FF
:1025E000A795F0405395C9F77EF41F16BA0B620BFE
:1025F000730B840BBAF09150A1F0FF0FBB1F661F45
:10260000771F881FC2F70EC0BA0F621F731F841F87
:1026100048F4879577956795B795F7959E3F08F0AD
:10262000B3CF9395880F08F09927EE0F979587956C
:102630000895D9D008F481E008950CD00FC107D1D6
:1026400040F0FED030F021F45F3F19F0F0C051119E
:1026500039C1F3C014D198F39923C9F35523B1F3C9
:10266000951B550BBB27AA2762177307840738F001
:102670009F5F5F4F220F331F441FAA1FA9F333D060
:102680000E2E3AF0E0E830D091505040E695001C14
:10269000CAF729D0FE2F27D0660F771F881FBB1FD0
:1026A000261737074807AB07B0E809F0BB0B802DAA
:1026B000BF01FF2793585F4F2AF09E3F510568F0F6
:1026C000B6C000C15F3FECF3983EDCF3869577958A
:1026D0006795B795F7959F5FC9F7880F911D9695F8
:1026E000879597F90895E1E0660F771F881FBB1F54
:1026F000621773078407BA0720F0621B730B840B01
:10270000BA0BEE1F88F7E095089504D06894B111D4
:10271000D9C00895BCD088F09F5790F0B92F992761
:10272000B751A0F0D1F0660F771F881F991F1AF0DC
:10273000BA95C9F712C0B13081F0C3D0B1E00895A5
:10274000C0C0672F782F8827B85F39F0B93FCCF326
:10275000869577956795B395D9F73EF490958095D2
:10276000709561957F4F8F4F9F4F0895E89409C0F2
:1027700097FB3EF490958095709561957F4F8F4FB4
:102780009F4F9923A9F0F92F96E9BB279395F695CA
:10279000879577956795B795F111F8CFFAF4BB0F48
:1027A00011F460FF1BC06F5F7F4F8F4F9F4F16C0AC
:1027B000882311F096E911C0772321F09EE8872F36
:1027C000762F05C0662371F096E8862F70E060E0F2
:1027D0002AF09A95660F771F881FDAF7880F96956B
:1027E000879597F90895990F0008550FAA0BE0E80F
:1027F000FEEF16161706E807F907C0F012161306C3
:10280000E407F50798F0621B730B840B950B39F402
:102810000A2661F0232B242B252B21F408950A2668
:1028200009F4A140A6958FEF811D811D089597F9A8
:102830009F6780E870E060E008959FEF80EC089566
:1028400000240A941616170618060906089500248F
:102850000A9412161306140605060895092E039409
:10286000000C11F4882352F0BB0F40F4BF2B11F47D
:1028700060FF04C06F5F7F4F8F4F9F4F089557FDDC
:102880009058440F551F59F05F3F71F04795880FDE
:1028900097FB991F61F09F3F79F087950895121675
:1028A00013061406551FF2CF4695F1DF08C0161621
:1028B00017061806991FF1CF8695710561050894D2
:1028C0000895E894BB2766277727CB0197F90895E9
:1028D0008ADF08F48FEF08950BD0C0CFB1DF28F066
:1028E000B6DF18F0952309F0A2CFA7CF1124EACFC5
:1028F000C6DFA0F3959FD1F3950F50E0551F629F5F
:10290000F001729FBB27F00DB11D639FAA27F00D48
:10291000B11DAA1F649F6627B00DA11D661F829F6F
:102920002227B00DA11D621F739FB00DA11D621F54
:10293000839FA00D611D221F749F3327A00D611D71
:10294000231F849F600D211D822F762F6A2F112453
:102950009F5750408AF0E1F088234AF0EE0FFF1FA6
:10296000BB1F661F771F881F91505040A9F79E3FDD
:10297000510570F05CCFA6CF5F3FECF3983EDCF3DF
:10298000869577956795B795F795E7959F5FC1F71A
:10299000FE2B880F911D9695879597F9089523DF53
:1029A000880B990B0895629FD001739FF001829F5D
:1029B000E00DF11D649FE00DF11D929FF00D839FCE
:1029C000F00D749FF00D659FF00D9927729FB00D6B
:1029D000E11DF91F639FB00DE11DF91FBD01CF017E
:1029E00011240895A1E21A2EAA1BBB1BFD010DC0E4
:1029F000AA1FBB1FEE1FFF1FA217B307E407F507AF
:102A000020F0A21BB30BE40BF50B661F771F881F8A
:102A1000991F1A9469F760957095809590959B0120
:102A2000AC01BD01CF01089597FB092E05260ED0FC
:102A300057FD04D0D7DF0AD0001C38F450954095DC
:102A4000309521953F4F4F4F5F4F0895F6F7909582
:102A50008095709561957F4F8F4F9F4F0895EE0F32
:0E2A6000FF1F0590F491E02D1994F894FFCF1C
:102A6E00207C7C200041524D494E472D004F56454B
:102A7E005252494445002D44495341524D494E4707
:102A8E0000434C4541524544005345542057500095
:102A9E0074657374007265616479006E616E0069AD
:102AAE006E66006F7666002E0001FFC80B00800078
:102ABE0095040000327C8900EDD96877000000593A
:102ACE000000000000000000D69FDCA81817AA9096
:102ADE00437327F6B968EDF4DED409FEE61C1C84B8
:102AEE00DDE80B992927D6DF8D210F036418EFEE51
:102AFE001EF0B7828200941500347C000000140092
:102B0E00988F0000000000000000000000E7B73FB3
:102B1E003600000000000000AF669ED038000000B6
:102B2E000000000000000000000000000000000097
:102B3E000000000000000000000000000000000087
:102B4E000000000000000000000086DBD0BC541620
:102B5E00131586004E44BD7F6F15159001000000C1
:102B6E000000000000000000000000000000000057
:102B7E000000000000000000000000000000000047
:102B8E000000000000000000000000000000000037
:102B9E000000000000000000000000000000000027
:102BAE0000000000000000000000000000CC31AA70
:102BBE002C532E0000000000830C9B10F40B240CF1
:0C2BCE00540C710C0A0C930BD70C430D37
:00000001FF
